:1000000062C200007CC200007AC2000078C2000018
:1000100076C2000074C2000072C2000070C200000C
:100020006EC200006CC200000C947C150C94C214CB
:100030000C94201864C2000062C2000060C200007C
:100040005EC200005CC200005AC2000058C200003C
:1000500056C200000C94EE1752C2000050C20000BD
:100060004EC200004CC200004AC2000048C200005C
:1000700046C2000044C2000042C2000040C200006C
:100080003EC200003CC200003AC2000038C200007C
:1000900036C2000034C2000032C2000030C200008C
:1000A0002EC200002CC200002AC20000B803BB030D
:1000B000C103BA03BD03C003BF036404D8046C04C6
:1000C00036043A0470043D0473047E044804CE04EC
:1000D0004C04820450048604B00454048A04BA0414
:1000E0005A0490049A044104770444047A045F0497
:1000F0009504A604C604C80432046804E104C905D2
:10010000C905FC05FC0579068D078D078D07970647
:100110000B071C071C07CF12F612AB14F612AB1418
:1001200041136313AB146414741435002B003900AD
:10013000E100510000001E00140004001D005000EA
:100140004B001F001A0016001B00E20028002000D0
:10015000080007000600E3002C002100150009003C
:100160001900E0004A00220017000A000500000004
:10017000AC00AA0030000000310000004600A900D9
:10018000340000002E000000AE0023001C000B0015
:1001900011000000AB00240018000D001000E40066
:1001A0004D0025000C000E003600E7002A00260056
:1001B00012000F003700E60029002700130033006B
:1001C00038004F004E002D002F002152E500520054
:1001D00000004500010002520100010000003A0049
:1001E000010001000100010001003B0001000100CD
:1001F0000100010001003C000100010001000100BC
:1002000001003D00010001000100010001003E006D
:1002100001000100010000000100010001000000D8
:1002200001000000010001000100000001000000C9
:1002300001003F000100010001000000010040003A
:100240000100010001000100010041000100010066
:100250000100010001004200010001000100010055
:100260000100430001000100010001000100440001
:1002700001000100010001000000290001003A0016
:1002800001003F00000001000100010001003E00EC
:10029000010001000100010001000100E100010076
:1002A0000100010001000100010001000100010046
:1002B0000100010001000100010001000100000037
:1002C00001003D003B0000003C0000000100005226
:1002D0000100000001000000010001000100010018
:1002E0000100000001000100010001000100010007
:1002F00001000100010001000100010001000100F6
:1003000001000100010001002800010001000100BE
:1003100001000100010001000100010001000100D5
:10032000000005010980A10185031A01002A8F0040
:10033000160100268F00950175108100C0050C097B
:1003400001A101850419012AA002150126A0029528
:100350000175108100C005010906A1018506050788
:1003600019E029E7150025019508750181020507A7
:10037000190029EF1500250195F075018102050886
:1003800019012905950575019102950175039101E2
:10039000C00660FF0961A1010962150026FF0095F2
:1003A00020750881020963150026FF009520750855
:1003B0009102C005010906A101050719E029E71509
:1003C00000250195087501810295017508810105D7
:1003D00007190029FF150026FF0095067508810002
:1003E00005081901290515002501950575019102DA
:1003F000950175039101C009025B00030100A0FA99
:10040000090400000103010100092111010001227A
:1004100044000705810308000109040100020300EC
:10042000000009211101000122220007058203209A
:100430000001070503032000010904020001030075
:100440000000092111010001226F0007058403202B
:1004500000011201000200000008973274490001F7
:10046000010203011A0337006D004B006C006200AB
:100470002F005800620070005900620079000000EF
:1004800016034500720067006F0064006F0078007B
:10049000200045005A00000028035A005300410084
:1004A000200054006500630068006E006F006C005F
:1004B0006F006700790020004C006100620073004B
:1004C00000000403090411241FBECFEFDAE0DEBFF1
:1004D000CDBF11E0A0E0B1E0E0EEF9E302C005908D
:1004E0000D92AA38B107D9F722E0AAE8B1E001C01D
:1004F0001D92A33AB207E1F797D60C94EE1C80CD7B
:1005000090E0FC01EA5DFE4F208121111AC0F894B1
:10051000FC01E85EFE4F8081E82FE295EF70F0E08D
:1005200031A1282F2F7081E090E001C0880F2A951B
:10053000EAF7982F9095932391A392A1892B82A3F8
:1005400078940895A6E0B0E0E8EAF2E00C94731C19
:1005500026E0FC01DE01119601900D922A95E1F74B
:10056000FC01258189819A81222359F0662349F073
:100570000E941019182F682F89819A810E947F1973
:1005800003C00E944B19182F69817A81812F0E9424
:100590009B0D2696E3E00C948F1C0E94FD192FEF13
:1005A00084E39CE0215080409040E1F700C00000CF
:1005B0000895A4E3B0E0EFEDF2E00C94721C4FA7B5
:1005C00058AB69AB7AAB8BAB9CAB91111092080224
:1005D0008E01085D1F4F87E0D8011D928A95E9F7CB
:1005E00086E0FE01BF96D80101900D928A95E1F751
:1005F0008CA58823D9F061E0C801A4DF8091C201F5
:10060000882389F08DA5811102C087E001C086E0B2
:10061000898388A58A8389A58B838EEF8C83CE01FD
:1006200001960E94E71161E0C8018CDF87E0FE01BE
:10063000B896DE01919601900D928A95E1F7CE0170
:1006400081960E94B80F81112CC087E0FE01B196FF
:10065000DE01119601900D928A95E1F76DA1662356
:1006600001F12091CC0130E0C901019687709927F2
:100670004091050250E08417950761F16D8397E082
:10068000929FD001939FB00D1124A353BE4FFE0142
:10069000319601900D929A95E1F78093CC010E94DA
:1006A000560F17E0809105029091CC018917F9F05F
:1006B000189FC001112483539E4F0E94B80F8823B6
:1006C000B1F08091050290E00196877099278093A0
:1006D0000502E8CF0E94FD191092CC01109205028C
:1006E000E5ECF1E087E0DF011D928A95E9F7E496F9
:1006F000E4E00C948E1C982F92959F7019F0892F2E
:1007000024E001C020E0982F9695969511F02E5F79
:10071000892F982F969509F02F5F822F089527989B
:100720002F982F98089526982E982E9808952598FA
:100730002D982D980895279A2F9A0895269A2E9AE3
:100740000895259A2D9A0895CF93DF93D82FD3DF5C
:10075000C82F5E98ECDFE7DFE2DF8C2F90E0FC0132
:100760003197E730F10570F4EA5AFF4F0C94DB1C27
:10077000E8DF08C0E6DFE2DF05C0E3DF02C0E1DF5B
:10078000DDDFD9DF8D2FDF91CF910895A0E0B0E0BC
:10079000ECECF3E00C946D1CFC012481222309F4A1
:1007A000E9C38C0161E0CEDEEC0181309E47C9F5E2
:1007B000F80185818823A9F190919E0181E0890F3C
:1007C0008770987F853020F4892B80939E0102C02A
:1007D00090939E0180919E018770FFEF8F9FC001D3
:1007E00011249595879595958795992790938900DC
:1007F0008093880090938B0080938A0090938D0063
:1008000080938C0040919E0150919F016091A001C6
:100810007091A1018FE090E00E94BF1C8091C10106
:1008200093DFF8018581882309F406C19E013057C2
:100830002332310508F0DBC084E090E00E94A81C60
:1008400090937C0280937B02FE01E150F047E232FC
:10085000F10520F4E35AFF4F0C94DB1C80917B02DE
:100860008160ACC080917C028860B4C080917B02C2
:100870008260A4C080917B0220C080917B0288604E
:100880009DC080917C021EC080917C028260A2C0CB
:1008900080917B02806192C080917B0280628EC0D9
:1008A00080917B0280648AC00E94FD1980917B0246
:1008B000806884C080917B02886084607FC0809162
:1008C0007C028260816086C080917B028E7F76C0D0
:1008D00080917C02877F7EC080917B028D7F6EC07D
:1008E00080917B0220C080917B02877F67C08091CE
:1008F0007C021EC080917C028D7F6CC080917B0247
:100900008F7E5CC080917B028F7D58C080917B027E
:100910008F7B54C00E94FD1980917B028F774EC05F
:1009200080917B02877F8B7F49C080917C028D7F85
:100930008E7F50C080917B0282FB222720F991E0BC
:10094000922790FB82F990FB83F938C080917C025A
:10095000982F909591708E7F892B90FB81F93AC0EA
:1009600080917B0286FB222720F991E0922790FB61
:1009700086F924C00E94FD1980917B0287FB222703
:1009800020F991E0922790FB87F918C061E001C03F
:1009900060E08EE090E00E94AD1C1EC080917B0262
:1009A00084FB222720F991E0922790FB84F906C06E
:1009B00080917B02982F909590FB80F980937B0229
:1009C0000BC080917C0283FB222720F991E09227C3
:1009D00090FB83F980937C0260917B0270917C0292
:1009E00084E090E00E94C71C0E94FD1913C0C6312C
:1009F0002CE7D20731F5809131028A7A91E009F42F
:100A000090E090938E018111B3C289E20E94801818
:100A10000E94D40E80910602877009F4ABC2F801DF
:100A20008581882309F4A6C280917C0282FFA2C23C
:100A300082E00E94290F9EC2C631FCE7DF0709F45D
:100A40008DC29E01205E324520323105A8F481110D
:100A500015C0CF7181E090E09C0102C0220F331FCE
:100A6000CA95E2F7E901622F83E090E00E94AD1C95
:100A70008C2F0E94D019CECF8823A9F1C3303CE738
:100A8000D307D9F040F4C1159CE7D90789F0C130EC
:100A9000DC47C9F028C0CB35FCE7DF0709F1CC35CE
:100AA0002CE7D207A9F0CA35DC47E9F481E019C088
:100AB00081E073DD0E94BC17ADCF6FEF7FEF80E068
:100AC00090E00E94C71C80E068DD0E94B117A2CFB1
:100AD00080917C0282FB882780F991E0892701C000
:100AE00080E00E94400FF8018581C081D181882378
:100AF00049F0CE010E941019F82E682FCE010E94F5
:100B00007F1904C0CE010E944B19F82EBE018F2D13
:100B10000E949B0D0E94B80DF82EC92FD82EF80107
:100B2000D581E680E2949FE0E922809106028770F9
:100B300001F1DD23F1F08C2F807F803469F080E2B9
:100B40008F0D8830B0F08C2F807E803229F4F1E058
:100B5000FF1578F4EE2069F080917C0282FF09C0D5
:100B600082E00E94290F809106028770CC24C394F2
:100B70008111C12CBC2EB2948FE0B8228B2D90E055
:100B80008C30910508F0C9C1FC01E158FF4F0C946D
:100B9000DB1C8C2F807FCF70882311F0C295C07F23
:100BA000DD23B9F0CC2309F4A6C180E28F0D883093
:100BB00010F0D11006C090913102C92BC0933102C0
:100BC00005C090910802C92BC09308020E94D40E60
:100BD00092C18F2D0E942D1ACC2309F49EC180E270
:100BE0008F0D883088F1DD2079F1C0959091080251
:100BF000C923C09308022BC08C2F807FCF70803216
:100C000011F0C295C07F8F2DDD2029F021E0D21692
:100C100009F44CC055C080917C0282FD1BC0DD23CD
:100C200069F0CC2339F090913102C92BC093310285
:100C30000E94D40E80E00E94521A6FC180E00E9490
:100C40002D1ACC2309F469C18C2F0E94CD0E0E946D
:100C5000D40E63C1DD2381F0EE20B1F131E0E31267
:100C60005CC1909107028C2F8923C81709F455C1E4
:100C7000C92BC093070251C1E1104FC18C2F0E94B4
:100C80001C1A809107029C2F982329F09C2F909585
:100C900089238093070220918F018C2F822309F4EE
:100CA0003CC1C0952C2320938F0137C1DD2329F04F
:100CB00081E08E1508F431C107C0E1102EC115C0C6
:100CC000DD2331F0E11017C18C2F0E94231A25C1BA
:100CD000EE2059F0893309F01DC19FEFE7EEF3E0F4
:100CE0009150E040F040E1F713C18C2F0E941C1A94
:100CF00014C18C2F86958695837019F0813061F030
:100D00000CC1DD2321F08F2D9C2F937002C080E059
:100D100090E00E94DC1808C1DD2321F08F2D9C2F6C
:100D2000937002C080E090E00E94B718FDC08C2F45
:100D30008370A9F5D111F5C04F2D429546954770A6
:100D4000440F440F8F2D8F7090E09C01042E01C042
:100D5000220F0A94EAF7F4FE08C08FE090E001C089
:100D6000880F4A95EAF7809501C080E0C695C69540
:100D7000C370C23069F088F49091C001C13019F09D
:100D8000822B892302C0922B892B0E94D019C9C0C3
:100D9000822B9091C0018927F8CF822BF6CFDD23DB
:100DA00019F08C2F817001C08695882309F4B9C091
:100DB0004F2D429546954770440F440F8F2D8F70ED
:100DC00090E09C01042E01C0220F0A94EAF7F4FE81
:100DD00008C08FE090E001C0880F4A95EAF780953F
:100DE00001C080E0C695C695C370C23059F078F452
:100DF0009091C101C13019F0822B892309C0922B37
:100E0000892B06C0822B9091C101892701C0822BBA
:100E10000E94B41986C0CF70DD2339F08C2F0E9458
:100E2000C6198F2D0E94231A7CC08F2D0E941C1A78
:100E30008C2F0E94BB1975C08F2D22EFD21669F13D
:100E40002D1538F030EFD31659F091EFD91601F186
:100E50004EC0E3EFDE1641F1F4EFDF16A9F047C014
:100E6000DD2369F0E11059C0CF7181E090E001C04D
:100E7000880FCA95EAF79091C10189271FC021E028
:100E80002E1508F44AC0F0CF80917C0282FD19C073
:100E9000DD2329F08C2F8F711FC0DD23D9F38C2F18
:100EA0008F710E94BB1939C0DD2339F0CF7181E009
:100EB00001C0880FCA95EAF701C080E00E94B4190A
:100EC0002CC0DD2361F08C2F8F7198E0899F9001F9
:100ED00011242360209306020E94C6191EC081E0DF
:100EE000B8D7E1E0EE15C8F482E0B3D716C0DD2331
:100EF00021F0EE2079F28F2D9ECEEE2081F2893303
:100F000049F4FFEF27EE33E0F15020403040E1F7A5
:100F100000C000008F2D0E942D1A88EF8B0D8430A9
:100F200018F40E94011916C0CC20A1F0809106028D
:100F300080FD10C0F80115828695869586950E94E1
:100F4000C619C80123DC8091060286958695869590
:100F50000E94BB1960E0C801F5DA0CC080918E01D7
:100F6000811104C089E20E94521852CD85E3FBCF63
:100F700085E34CCDCDB7DEB7E9E00C94891CA0E247
:100F8000B0E0E5ECF7E00C94731C182F8091C201DF
:100F90008823D9F08091C001812BADDB90918D0128
:100FA000891799F080938D018FE39CE90197F1F700
:100FB00000C0000085E0898380918D018A838EEFD7
:100FC0008B83CE0101960E94E711812FA096E3E06A
:100FD0000C948F1CA0E2B0E0E0EFF7E00C94741CDE
:100FE0009FEF99838A83CE0101960E94E711A09614
:100FF000E2E00C94901CA1E0B0E0E1E0F8E00C9499
:10100000721C8730F8F420910C0130910D01232BD4
:10101000D1F521E030E0A90102C0440F551F8A95A7
:10102000E2F7CA01809589830AE010E0AE014F5FC4
:101030005F4F62E180E40E947E1B90930D018093DC
:101040000C0121C090E0FC01EA5DFE4F20812111DE
:101050001AC0F894FC01E85EFE4F8081E82FE2950B
:10106000EF70F0E031A1282F2F7081E090E001C0F7
:10107000880F2A95EAF7932F982B91A392A1809538
:10108000892382A378942196E4E00C948E1C0F931C
:101090001F93CF930DE211E0C7E0F80181918F011A
:1010A000811102C08C2F2CDACF5FCE30B1F7CF91F7
:1010B0001F910F910895A1E0B0E0E1E6F8E00C94F3
:1010C000721C082F8730C8F480910C0190910D019B
:1010D000892BD9F519820AE010E021E030E0AE0159
:1010E0004F5F5F4F63E180E40E94C41B90930D014A
:1010F00080930C018981809529C07DDFA2E1B1E058
:1011000020E030E010E051E04D91E42FE295EF70E7
:10111000F0E080A190E04F7002C0959587954A95C8
:10112000E2F780FD07C0852F022E01C0880F0A94C8
:10113000EAF701C080E0182B2F5F3F4F26303105C2
:1011400019F7802FDDD9812F01C080E02196E4E0DE
:101150000C948E1CCF93DF93A2E1B1E048E151E003
:1011600061E070E0F8948D91E82FE295EF70F0E087
:1011700021A18F70EB0102C0CC0FDD1F8A95E2F731
:10118000CE019C2F9095922391A392A1892B82A3AB
:1011900078944A175B0731F7DF91CF910895A2E069
:1011A000B0E0E5EDF8E00C94721C80E290E09093E2
:1011B0000D0180930C0180918C0181110EC00E9461
:1011C000071B81E080938C012FEF83ED90E321508A
:1011D00080409040E1F700C0000019828FE38A83CD
:1011E0000AE010E022E030E0AE014F5F5F4F60E0C8
:1011F00080E40E947E1B90930D0180930C01892B4B
:1012000069F422E030E0AE014F5F5F4F6CE080E4B4
:101210000E947E1B90930D0180930C0180910C0124
:101220002296E4E00C948E1CA6E6B0E0EAE1F9E038
:101230000C94651C85B7806885BF85B7806885BFBD
:1012400084B7877F84BF0FB6F894A895809160001B
:10125000886180936000109260000FBE90E080E88B
:101260000FB6F89480936100909361000FBE81E007
:101270008093110188E69CE090938B0180938A0112
:101280000E9405150E9424158091E20084608093DD
:10129000E2007894809143028823A1F01091E90044
:1012A0001F709091EC00892F817090FD80E8182BC1
:1012B0001092E9008091E80083FD0E94EC111F70FC
:1012C0001093E90082E084BD93E095BD9AEF97BD4D
:1012D00080936E0064DF90E090930D0180930C0189
:1012E000D6DE38DFE0E9F1E0A2EAB1E011921D922A
:1012F00021E0EE39F207D1F780E090E00E94A81CCF
:10130000833E9E4FB9F163EE7EEF80E090E00E9455
:10131000C71C60E082E090E00E94AD1C81E08093F9
:10132000C00161E083E090E00E94AD1C60E074E1E8
:1013300084E090E00E94C71C10929E0110929F01D1
:101340001092A0011092A10184E080939E0140912F
:101350009E0150919F016091A0017091A1018FE0C9
:1013600090E00E94BF1C40E050E0BA0183E190E0B1
:101370000E94BF1C82E090E00E949B1C8093B00101
:1013800084E090E00E94A81C90937C0280937B02F2
:1013900072D78FE39CE90197F1F700C000006BD78B
:1013A0008091A20180FF08C06FEF7FEF80E090E0A6
:1013B0000E94C71C0E94BC1783E090E00E949B1C07
:1013C0000E94D0198091C101BFD989EA8093800021
:1013D00089E08093810024982C983F98479A5498EC
:1013E0005C9A55985D9A6E98769A569A8FE090E03E
:1013F0000E94A31C60939E0170939F018093A001A3
:101400009093A10167701FEF169FB001112475958D
:101410006795759567957727709389006093880025
:1014200070938B0060938A0070938D0060938C00A2
:101430005E987DD978D973D98FEF90E09093890029
:101440008093880090938B0080938A0090938D0006
:1014500080938C0076D99FEFE0E7F2E09150E04076
:10146000F040E1F700C0000069D92FEF80E792E07B
:10147000215080409040E1F700C000005CD9EFEFC0
:10148000F0E722E0E150F0402040E1F700C000002A
:101490004ED98FEF90E7E2E081509040E040E1F7D5
:1014A00000C0000040D9FFEF20E782E0F15020406B
:1014B0008040E1F700C0000032D980919E01877022
:1014C000189FC00111249595879595958795992723
:1014D000909389008093880090938B0080938A007A
:1014E00090938D0080938C005E9821D91CD917D9D8
:1014F00080E091E0909378028093770278E1C72EA4
:10150000D12CE0EBEE2EE1E0FE2E01E07724739487
:1015100080914302853009F04BC010E430E1B32ED6
:1015200042E1A42E80914302853009F03DC08091B4
:101530004302843009F110927D020FB6F894A89509
:10154000C09260000FBE1093600083B7817F8460FB
:1015500083BF83B7816083BF7894889583B78E7F7C
:1015600083BF0FB6F894A89580916000886180933E
:101570006000109260000FBE12DE90E090930D01AB
:1015800080930C0184DDE6DDE2EAF1E01192EE16D3
:10159000FF06E1F770D6E2EAF1E0819181117DC1A9
:1015A000EE16FF06D1F7BECF0E94FD190E94011969
:1015B00062D621EBA22E21E0B22EA2EAB1E0F50123
:1015C00091918D91892791E0EF3BF90719F08823DC
:1015D000B9F304C0811102C0D8D653C092EA892E53
:1015E00091E0992E10E0F40131904F01F501408017
:1015F0004324A9F1612C55245394842D852141F174
:10160000A2966FAEA297A3961FAFA3970E9414183D
:10161000A5969FAF8EAFA597A6960FAFA69791E020
:10162000832D852109F490E0A7969FAFA797A296F6
:101630004FADA297A3965FADA397A4966FADA49765
:10164000A5967FADA597A6968FADA6970E94D902C5
:101650006394550CF6E06F12D0CFF50130821F5F16
:10166000FFEFAF1ABF0A1E3009F0BDCF8FB7F89455
:1016700040917E0250917F026091800270918102C0
:101680008FBF0E9401199091BF01891769F0809363
:10169000BF018FB7F89440917E0250917F02609114
:1016A0008002709181028FBF80914302843009F0E3
:1016B0002FCF83E08093E9008091E80082FF28CF5C
:1016C0008091E80085FF24C00E945F1681111EC032
:1016D00080E2A82EB12C4E0121E4820E911C09C09B
:1016E0008091F100F40181934F01F1E0AF1AB1084C
:1016F00069F08091E80085FDF3CF8091E8008B7759
:101700008093E8000E945F16882399F391E001C05E
:1017100090E08091E8008B778093E800992309F4AA
:10172000F7CE22968FAD2297873009F469C030F545
:10173000823009F4EDCED0F48823C1F1813009F074
:10174000A9C08093C20184E089A31EEF1AA3CE0131
:1017500081963DD69091C1018091C001892B0E9454
:101760007B0395E099838A831B8390C0853009F4BD
:1017700077C008F075C0843031F18CC08A3009F42C
:1017800071C038F4883009F46BC0893009F468C03E
:1017900081C08C3009F47EC008F47CC08E3F09F013
:1017A00079C0898395E09A838B8370C019828DE01C
:1017B000E4E3F1E0DE01129601900D928A95E1F7E3
:1017C0008EEF8E8763C08091C201882309F4A0CE7A
:1017D00023968FAD2397811106C024968FAD249751
:1017E0000E94BB1995CE81E090E024960FAC24971F
:1017F00002C0880F991F0A94E2F70E94B41988CE9C
:101800007092C40123968FAD23978230E1F030F5BA
:10181000882319F0813061F021C024968FAD249780
:10182000882319F00E94A10373CE0E94970370CE03
:1018300024968FAD2497882319F00E949E0368CECA
:101840000E94930365CE24968FAD2497882319F0C8
:101850000E949B035DCE0E948F035ACE85E01BC081
:1018600084E019C023968FAD239711E0811101C048
:1018700010E01093C401811106C00E9497030E94DA
:1018800093030E948F038BE089831A83CE01019614
:101890009ED53ECE8FEF9EDB3BCE809142028823C9
:1018A00009F440CEB9BCA9BC09B400FEFDCF8091BB
:1018B000D8008F7D8093D8008091E0008260809373
:1018C000E0008091E00081FDFCCF0E94FD192ACE4E
:1018D00080E0089590917B0292FF10C041E0282F94
:1018E0002471243009F040E031E0282F287128309D
:1018F00009F030E0431711F02CE0822793FF10C06D
:1019000041E0282F2471243109F040E031E0282FF4
:101910002871283109F030E0431711F02CE08227BC
:1019200030917C0230FF10C051E0282F217121300E
:1019300009F050E041E0282F2871283009F040E0FC
:10194000541711F029E0822731FF10C041E0282F01
:101950002171213109F040E031E0282F2871283130
:1019600009F030E0431711F029E0822794FD877ECB
:1019700008958238910569F1B0F48133910509F435
:1019800075C048F48932910509F467C08A3291051F
:1019900009F471C008958533910509F459C089335C
:1019A0009105B9F00895833E910589F138F4803EA0
:1019B0009105D1F0823E910529F10895863E910569
:1019C000C9F1873E9105D9F1843E910509F06CC0BB
:1019D00027C020917B0220FD57C021FD55C02091DA
:1019E0007C0223FD5BC0089580917B0280FD48C08E
:1019F00080917C0280FF48C080917B0284FD46C0BC
:101A000083EE51C080917B0282FF3CC0F5CF809174
:101A10007B0282FD37C080917C0280FD35C0ECCF17
:101A200080917C0281FF36C080917B0284FD2EC0B4
:101A300087EE39C080917B0283FF2AC0F5CF809169
:101A40007B0283FD25C080917C0281FD23C0ECCF09
:101A500080917B0285FD22C01FC080917B0285FDA5
:101A60001BC080917C0283FF19C00AC080917B0259
:101A700086FD16C017C080917B0286FD13C010C082
:101A800089E311C082EE0FC080EE0DC080E00BC074
:101A900086EE09C084EE07C085E305C089E203C075
:101AA0008AE201C081E390E0089590913102809133
:101AB0000802892B909107029923E1F0892B9091DC
:101AC0001001913041F490917B0297FF04C09EE198
:101AD00027E532E003C096E02FE432E0F90120E090
:101AE000915028F031913323D9F32F5FF9CF211191
:101AF000109207020895209105029091CC0157E0C1
:101B00002917A9F030E0529FF001539FF00D1124E6
:101B1000E353FE4F7181761306C07081781303C0C2
:101B20007581741306C02F5F3F4F2770E9CF80E0A7
:101B3000089581E008957E30B0F46630A0F48330DB
:101B4000A0F494E5899FF001112486E0789FE00DD0
:101B5000F11D1124E60FF11DEE0FFF1FE65DFE4F94
:101B600085919491089580E001C081E090E008950E
:101B70001F93CF93DF93FDDEEC01C11580E5D807FD
:101B8000E8F5C11590E4D90708F0A6C0C03ED1051C
:101B900030F5CD3CD10508F094C0C83AD10578F4B1
:101BA000C53AD10508F083C0C130D10509F47CC025
:101BB00008F4EBC0C430D10508F0EAC0E6C0C33C6D
:101BC000D10508F0E2C0C85AD0E0CC0FDD1FCC5BD5
:101BD000DE4F0990D881C02DCE019464DAC0C115C2
:101BE00080E2D80708F0C6C0C11591E0D90708F017
:101BF0006BC0C83ED10508F4CBC0C7C0C03682E573
:101C0000D80728F5C03492E5D90708F076C0C0326D
:101C100082E5D80708F069C0C11592E5D90708F434
:101C20007EC04C2F4695469580E2489FA001112426
:101C3000C37021E030E0C90102C0880F991FCA9526
:101C4000E2F7EA01C82BD92BCE019D68A2C0C03AA9
:101C500082E5D807B8F48C2F8F71C03892E5D90788
:101C600008F077C08695869590E2899F90011124AF
:101C7000C37081E090E002C0880F991FCA95E2F717
:101C80009A6864C0C03C82E5D80708F469C0C03EC9
:101C900092E5D90708F079C0CF71DD27DC2FCC277A
:101CA000CE01806F906A75C081E090E072C0C55A25
:101CB000D0E0CF5BDE4F8881C82FD0E0CE019064AA
:101CC00068C0CE01906565C08D2F04DE182FCE014F
:101CD00099274FDE1F7157C0CE0199274ADECC27C6
:101CE000DF70D06A8C2B9D2B54C0CF71D0E0DC2FDD
:101CF000CC27CE01816F906A4CC08C2F8F71869556
:101D0000869590E2899F90011124C37081E090E054
:101D100002C0880F991FCA95E2F79C6817C08C2FE4
:101D20008F71D8DD95E0D695C7959A95E1F7CF707C
:101D3000D0E0DC2FCC27282F30E084FF05C084E0E2
:101D4000220F331F8A95E1F7D069CE01822B932BA6
:101D500020C090E0D82FCC27CE01846F906A19C0A4
:101D60008C2F8F71B7DD8F7190E0D82FCC27CE01EB
:101D700090620FC08D2F8F71ADDD182FCE01992786
:101D8000F8DD1F719062912B04C080E090E001C0EB
:101D9000CE01DF91CF911F910895809590913102EE
:101DA000892380933102089580911001813061F57B
:101DB00080917B0287FF28C078DE8093560240E244
:101DC00050E069E072E085E592E00E94E11C892B19
:101DD00009F43EC080E2E5E5F2E0A9E0B2E001905E
:101DE0000D928A95E1F7E0917702F09178023097B1
:101DF00079F10480F581E02D309751F186E08093F0
:101E0000550285E592E023C050DE80934D0248E004
:101E100050E069E272E08DE492E00E94E11C892BBF
:101E2000B9F088E0EDE4F2E0A9E2B2E001900D92B1
:101E30008A95E1F7E0917702F0917802309741F0CE
:101E40000280F381E02D309719F08DE492E009953E
:101E50000895909106028095892380930602282F89
:101E6000277069F4981759F090917C0292FF07C08F
:101E70008695869586950E94BB1910920602089554
:101E800090917C0292FB222720F9281771F080FBA9
:101E900092F990937C0260917B0270917C0284E0C5
:101EA00090E00E94C71C82E0D4CF08958091050283
:101EB0009091CC01891719F08F5F8770FBCF08953F
:101EC000CF93DF938091CB0182958F7009F04DC045
:101ED0008091CA01882309F448C08091050240918D
:101EE000CC015091C6016091C501C091C701D0914C
:101EF000C80177E08417C9F190E0789FF001799FDD
:101F0000F00D1124DF01A353BE4F14962C911497AA
:101F1000222341F111962C911197251323C02C9166
:101F2000261320C015962C91159721111BC01296CF
:101F30002D913C9113972C1B3D0B283C310590F4BF
:101F40008091CB018F7080618093CB01ED52FE4F69
:101F500080818F708061808385EC91E00E94C60350
:101F6000A5DF03C001968770C5CFDF91CF9108959B
:101F7000A4E1B0E0EEEBFFE00C946A1C8C0186E07B
:101F8000F801DE011F9601900D928A95E1F7F801A4
:101F90008481E58095EC892E91E0992E9091C9017C
:101FA00091111FC0882309F45FC1EE2009F441C0DC
:101FB000C8010E94DB19F82E8823D9F187E0F801C7
:101FC000D40101900D928A95E1F78091C901813089
:101FD00031F48091C5019091C6010E943F1970DFD4
:101FE00045C1F801D080C180A280B380F090CA01C1
:101FF0002091C7013091C801FF2009F4E4C0A50178
:10200000421B530B483C510508F09AC0882309F441
:102010002DC18091CB01282F207F9091C6012223D2
:1020200061F09C1509F45EC0C8010E94DB198111A2
:1020300061C0C8010E94C60317C19C1113C09091D2
:10204000C5019D110FC0E1100DC08F70806180939C
:10205000CB0185EC91E00E94C6038091CB01F80191
:10206000868300C1E11038C040E06C2D8D2D43DD2A
:1020700040E06C2D8D2D3FDDE82E8111F3C0DF8611
:10208000C88A8F8598890E943F19292F22952F7021
:10209000243020F49F70223028F009C02A502230CA
:1020A00080F014C0992349F0811107C013C099230F
:1020B00021F0F8019681907F69F0805E883030F4DD
:1020C00009C0803F38F0815F833020F0C8010E9452
:1020D000C603EF2CFE2CCAC08091CB018160809397
:1020E000CB01C0C09091C5019D119ECFE1109CCF46
:1020F000F80197C0EE2009F49CCF2091CB01822FEC
:1021000082958F7090E002978CF08091C50190913C
:10211000C60199878887BB86AA868091C9018C876A
:102120001D862E87CE0108960E94C60387E0F8011F
:10213000A5ECB1E001900D928A95E1F7C1DE94C063
:102140009091CB01292F207F51F485EC91E00E94E2
:10215000C60387E0F40111928A95E9F783C08823CA
:1021600009F484C08091C6018C110CC08091C50116
:102170008D1108C0E11006C0F8019683C8010E94C5
:10218000C6036AC0C8010E94DB19882309F451CF35
:10219000EE2009F44ECF2091CB01822F82958F70D3
:1021A00090E002971CF28091C5019091C6019A833C
:1021B0008983BC82AB828091C9018D831E822F836B
:1021C000CE010196B1CFA21AB30AF8ECAF16B10452
:1021D00008F042C0882309F447C0FE2CEE2009F421
:1021E00028CF8091C6018C1129C08091C5018D1125
:1021F00025C09091CB0190FD18C0892F82958F70DA
:10220000282F30E02115310581F0F80196832F3019
:10221000310541F08F5F982F9295907F86818F7066
:10222000892B8683C8010E94C60387E0F801A5ECCC
:10223000B1E001900D928A95E1F718C0C8010E94A3
:10224000DB19811173CF8091CB0181608093CB0129
:10225000C8010E94C6030AC087E0F40111928A9562
:10226000E9F704C0F12C02C0FF24F3948F2D64968B
:10227000ECE00C94861CEF92FF920F931F93CF9388
:10228000DF9380910C0190910D01892BD1F0809109
:1022900034028F5F80933402811113C00E94CF08F3
:1022A00090E090930D0180930C01892B51F42FEF56
:1022B00083EC99E0215080409040E1F700C000009D
:1022C00050D600E911E0C0E0D0E087E0E82EED0E46
:1022D0008D2F0E94FB078E2D0E94FB078D2F0E94E1
:1022E0005B088F73F8019081891721F08083FF24A8
:1022F000F39401C0F12C8E2D0E945B088F73F801BE
:102300009781891719F0878381E001C080E0F82A5E
:10231000CF290E944708DF5F0F5F1F4FD730A9F614
:10232000CC2351F081E0809337027ED69093360221
:1023300080933502C0E023C0809137028823F9F0F2
:1023400000913502109136026FD6801B910B0597D4
:10235000B0F04EE050E060E971E082EA91E00E9466
:10236000E11C892B51F08EE0E0E9F1E0A2EAB1E056
:1023700001900D928A95E1F7C1E0109237028C2FFF
:10238000CDB7DEB7E6E00C948C1CA6E0B0E0EBEC39
:10239000F1E10C94721C48D68C018091320290912C
:1023A00033020817190779F019821A823DD6682F6F
:1023B00049815A81792F80E090E00E94D9021093E0
:1023C0003302009332022696E4E00C948E1C40E225
:1023D00050E0BC0182E05CC5AAE2B0E0E2EFF1E1CE
:1023E0000C94731CE5E4F2E08DE492E02091F1009E
:1023F00021938E179F07D1F780914602833009F40D
:1024000062C030F4813071F0823009F49EC0B4C0F3
:102410008A3009F48BC08B3009F46DC0893009F023
:10242000ABC01FC080914502813A09F0A5C08091E0
:10243000E800877F8093E8008091490290914A02EA
:10244000892B21F468E089E392E003C060E080E03A
:1024500090E070E0BFD48091E8008B778093E80033
:102460008BC080914502813209F086C0809149027B
:1024700090914A02009719F0029709F07DC080916F
:10248000E800877F8093E8008091E80082FD05C026
:10249000809143028111F8CF6FC02091F3008091A9
:1024A000F20090E0922B029731F48091F10081309C
:1024B00011F0863021F48091F10080930F0180911A
:1024C000E8008B7756C080914502813A09F054C0EC
:1024D0008091490290914A02892B09F04DC0809168
:1024E000E800877F8093E8008091E80080FFFCCFC0
:1024F0008091100139C080914502813209F03CC0C1
:102500008091490290914A02892BB1F58091E800AF
:10251000877F8093E8000AD481E09091470291116F
:1025200001C080E08093100168D726C080914502E9
:10253000813211F58091E800877F8093E800F6D31F
:102540008091480280930E0117C080914502813A24
:1025500099F48091E800877F8093E8008091E800FB
:1025600080FFFCCF80910E018093F1008091E80004
:102570008E778093E800DAD38091E80083FFEBC187
:102580008091450290914602492F50E04A30510512
:1025900008F0E1C1FA01E557FF4F0C94DB1C8038CD
:1025A00021F0823809F0D7C108C080914102909192
:1025B0004202992389F082600FC0809149028F7096
:1025C000873008F0C8C18093E9008091EB0085FB5B
:1025D000882780F91092E9009091E800977F909306
:1025E000E8008093F1001092F1007AC1282F2D7F2E
:1025F00009F0B1C1882319F0823061F0ACC180913B
:102600004702813009F0A7C1933009F080E0809340
:1026100042022EC08091470281112AC08091490256
:102620008F702FEF280F263008F095C18093E900B6
:102630002091EB0020FF1CC0933021F48091EB002F
:10264000806214C09091EB0090619093EB0021E0C8
:1026500030E0A90102C0440F551F8A95E2F740936C
:10266000EA001092EA008091EB0088608093EB0012
:102670001092E9008091E800877F8093E80056D3AC
:102680006AC1811168C1109147021F778091E300F0
:102690008078812B8093E3008091E800877F80938E
:1026A000E80044D38091E80080FFFCCF8091E300F4
:1026B00080688093E300111102C082E001C083E0D2
:1026C0008093430248C18058823008F044C1209171
:1026D0004702309148022C3D53E0350771F583E005
:1026E0008A838AE289834FB7F894DE01139620E04B
:1026F0003EE051E2E32FF0E050935700E49120FFD9
:1027000003C0E295EF703F5FEF708E2F90E0EA30EC
:1027100010F0C79601C0C0968D939D932F5F243112
:1027200049F74FBF8091E800877F8093E8006AE215
:1027300070E0CE0101964ED3C1C0809149029091C4
:102740004A02432F552743305105B1F068F4413018
:10275000510509F40FC14230510509F0FCC08BE569
:1027600090E0E7EFF3E057C04132510589F1423282
:10277000510509F43CC0EFC0C9019927813091058A
:10278000B9F070F082309105D9F0039709F0E3C0F9
:10279000E4E6F4E0E4918E2F90E0E4E6F4E038C063
:1027A000E2ECF4E0E4918E2F90E0E2ECF4E030C053
:1027B000E8E9F4E0E4918E2F90E0E8E9F4E028C045
:1027C000E0E8F4E0E4918E2F90E0E0E8F4E020C04F
:1027D0008330910508F0BFC0880F991FFC01ED57A9
:1027E000FE4F0190F081E02D89E090E014C083302D
:1027F000910508F0B0C0FC01EE0FFF1FE358FE4F3B
:102800000190F081E02DDC01A658BE4F8C9190E044
:10281000009709F4A0C02091E800277F2093E800EA
:1028200020914B0230914C028217930708F49C01CF
:1028300040E02115310589F180914302882309F494
:102840003DC08530D9F18091E80083FD37C080918B
:10285000E80082FD2FC08091E80080FFEACF409120
:10286000F3008091F20090E0942B2115310559F08E
:102870008830910540F444914093F1003196215005
:1028800031090196F2CF41E0089709F040E08091CC
:10289000E8008E778093E800CCCF4111CDCF0AC0FD
:1028A00080914302882351F0853041F08091E80007
:1028B00083FD04C08091E80082FFF2CF8091E800A0
:1028C0008B778093E80047C0803809F044C080913E
:1028D000E800877F8093E800809144028093F100B4
:1028E0008091E8008E77C9CE811135C08091470272
:1028F000909148029927029774F58091E800877FAC
:102900008093E80010914702109344020FD21111F6
:1029100006C08091E30087FD02C081E001C084E031
:102920008093430242E061EC81E01FD242E261EC1D
:1029300084E01BD242E261EC82E017D242E260EC1A
:1029400083E013D280914302843011F081E001C012
:1029500082E0809311018091E80083FF10C0809194
:10296000E800877F8093E8008091EB00806280938D
:10297000EB0005C082E190E0E2E5F4E04CCFAA96DE
:10298000E3E0CDC71F920F920FB60F9211242F9341
:102990003F934F935F936F937F938F939F93AF93E7
:1029A000BF93CF93DF93EF93FF93C091E900CF7074
:1029B0008091EC00D82FD17080FDD0E81092E90012
:1029C0008091F000877F8093F000789405DD10926D
:1029D000E9008091F00088608093F000CD2BCF70EB
:1029E000C093E900FF91EF91DF91CF91BF91AF913B
:1029F0009F918F917F916F915F914F913F912F9117
:102A00000F900FBE0F901F901895E8EDF0E08081B9
:102A10008E7F80831092E2001092DA001092E10023
:102A2000A0EEB0E08C9181608C9380818F77808361
:102A300019BCA7EDB0E08C918E7F8C9380818F7E46
:102A40008083109238020895A0E0B0E0E9E2F5E159
:102A500045C7C8EDD0E088818F7E8883E7EDF0E040
:102A600080818160808384E082BF81E0809338022E
:102A700088818E7F888302EE10E0F8011082109228
:102A8000DA0081EEC82ED12CF601108288818F7772
:102A9000888388818068888388818F7D888319BC3A
:102AA000109243021092440210924202109241028C
:102AB00090EEE92EF12CF70180818B7F8083888155
:102AC0008160888342E060E080E04FD1F601808140
:102AD0008E7F8083F801808181608083808188601F
:102AE0008083F70180818E7F8083888180618883E5
:102AF000CDB7DEB7E8E00EC71F920F920FB60F9268
:102B000011242F933F934F935F936F937F938F93F2
:102B10009F93AF93BF93EF93FF938091E10082FF68
:102B200009C08091E20082FF05C08091E1008B7FA7
:102B30008093E1008091DA0080FF28C08091D80066
:102B400080FF24C08091DA008E7F8093DA0080912C
:102B5000D90080FF16C080E189BD82E189BD09B43A
:102B600000FEFDCF81E08093430280913802811105
:102B70000DC04BDF69DF8091E20084608093E2004A
:102B800005C019BC10924302109238028091E100F6
:102B900080FF1AC08091E20080FF16C08091E200A1
:102BA0008E7F8093E2008091E20080618093E2005A
:102BB0008091D80080628093D80019BC85E0809312
:102BC000430283E0809311018091E10084FF37C0CC
:102BD0008091E20084FF33C080E189BD82E189BD3C
:102BE00009B400FEFDCF8091D8008F7D8093D8007E
:102BF0008091E1008F7E8093E1008091E2008F7EE2
:102C00008093E2008091E20081608093E2008091F5
:102C10004402882311F084E007C08091E30087FD1F
:102C200002C081E001C083E08093430280914302AF
:102C3000843011F081E001C082E080931101809125
:102C4000E10083FF2BC08091E20083FF27C08091C9
:102C5000E100877F8093E10082E08093430210923D
:102C600044028091E1008E7F8093E1008091E20038
:102C70008E7F8093E2008091E20080618093E20089
:102C800042E060E080E071D08091F0008860809345
:102C9000F00081E08093110180931001FF91EF918A
:102CA000BF91AF919F918F917F916F915F914F9164
:102CB0003F912F910F900FBE0F901F90189520916C
:102CC000E4003091E50095E64091EC00842F81709E
:102CD00040FF23C08091E80080FD1DC08091430229
:102CE000882399F0853099F08091EB0085FD11C023
:102CF0004091E4005091E5002417350729F39150E5
:102D000011F09A01E1CF84E0089582E0089583E014
:102D1000089581E0089580E008954091E80042FF21
:102D2000DDCF0895089580910F01089580914502A7
:102D300087FF11C08091E80082FD05C080914302A9
:102D40008111F8CF11C08091E8008B770BC0809182
:102D50004302882349F08091E80080FFF8CF8091FA
:102D6000E8008E778093E8000895982F973068F5F3
:102D70009093E900981739F07091EC002091ED00E4
:102D80005091F00003C0242F762F50E021FD02C0A7
:102D90009F5FECCF3091EB003E7F3093EB003091A2
:102DA000ED003D7F3093ED003091EB0031603093CA
:102DB000EB007093EC002093ED005093F000209115
:102DC000EE0027FDE5CF80E008958F708093E90045
:102DD00081E0089520914B0230914C02261737076D
:102DE00048F06115710539F42091E8002E772093A1
:102DF000E80001C0B901FC0120E06115710579F11D
:102E0000809143028823F1F18530F1F18091E8004F
:102E100083FD3CC08091E80082FD2EC08091E800D7
:102E200080FFEBCF2091F3008091F20090E0922B95
:102E30006115710551F08830910538F42191209386
:102E4000F100615071090196F3CF21E0089709F074
:102E500020E08091E8008E778093E800CECF2111AA
:102E6000CFCF0AC080914302882361F0853061F0A2
:102E70008091E80083FD0AC08091E80082FFF2CFD4
:102E800080E0089582E0089583E0089581E0089548
:102E90000F931F93CF93DF938B01EA01909143022D
:102EA0009430A1F58F708093E9008FEF9091E80046
:102EB000815095FD06C095ED9A95F1F700008111BE
:102EC000F5CF8091E80085FF21C0F9DE811115C0A2
:102ED000209789F08091E80085FD06C08091E80088
:102EE0008E778093E800F1CFF80181918F01809374
:102EF000F1002197EDCF90E001C0982F8091E8007C
:102F00008E778093E80081E0911101C080E0DF912D
:102F1000CF911F910F91089543E050E0BC0184E0F0
:102F2000B7CF40E250E0BC0184E0B2CFCF93DF9353
:102F3000EC0148E050E0BC0181E0AADF88E0FE013E
:102F4000A9E3B2E001900D928A95E1F7DF91CF916C
:102F50000895603229F4BC0140E250E082E098CF4D
:102F600008959AE088E10FB6F894A89580936000E0
:102F70000FBE90936000FFCFF89481E08093E00053
:102F800080E28093D800E9ECF0E010828FE19EE4CB
:102F90000197F1F700C000001DBA109268001CBC38
:102FA00010BE1FBA10927A0010926E0010926F003D
:102FB00010927100109272001082ECEBF0E010821F
:102FC00014B817B81AB81DB810BA108215B818B8C6
:102FD0001BB81EB811BA0C94003F089578941F9244
:102FE0000F920FB60F9211248F939F93AF93BF93BD
:102FF00080917E0290917F02A0918002B091810227
:103000000196A11DB11D80937E0290937F02A09333
:103010008002B0938102BF91AF919F918F910F90E9
:103020000FBE0F901F9018952FB7F89480917E02D5
:1030300090917F02A0918002B09181022FBF0895EC
:103040001F920F920FB60F9211248F939F93AF93FD
:10305000BF9380917D02811113C080917E02909177
:103060007F02A0918002B09181024196A11DB11D05
:1030700080937E0290937F02A0938002B09381029E
:10308000BF91AF919F918F910F900FBE0F901F90A6
:103090001895CF93DF93EC01C7DF8C1B9D0BDF915D
:1030A000CF91089590911001913021F490917B027D
:1030B00097FD03C0EDE4F2E01DC0E82FE695E6952C
:1030C000E695EE31E0F4F0E0EB5AFD4F877021E039
:1030D00030E0A90102C0440F551F8A95E2F7CA01EA
:1030E00080959281892382830895319652E0E33559
:1030F000F50729F092818913F8CF1282F6CF08954F
:10310000909110019130D1F490917B0297FF16C0FD
:10311000E82FE695E695E695EE3140F5F0E0EB5ABE
:10312000FD4F877021E030E0A90102C0440F551F18
:103130008A95E2F7CA019281892B16C0AFE4B2E00A
:10314000EFEF90E02D91821789F0EF3F19F42111F4
:1031500001C0E92F9F5F9630A9F7EF3F39F00E2E9F
:10316000000CFF0BE35BFD4F828308950895A3E0FD
:10317000B0E0ECEBF8E1B8C32091790230917A022B
:1031800028173907B1F090937A0280937902E09181
:103190007702F0917802309761F00084F185E02D9C
:1031A000309739F024E029839B838A83CE010196EE
:1031B00009952396E2E0B4C3A3E0B0E0E1EEF8E1C4
:1031C00093C3209175023091760228173907B1F028
:1031D0009093760280937502E0917702F0917802E5
:1031E000309761F00084F185E02D309739F023E0CD
:1031F00029839B838A83CE01019609952396E2E079
:103200008FC3E0917702F0917802309739F0019006
:10321000F081E02D309711F00995089580E0089530
:10322000CF92DF92FF920F931F93CF93DF936C01A6
:103230000091C1018091C001082BC7E0D0E010E0EF
:10324000C8010C2E02C0959587950A94E2F780FD7F
:1032500004C02197A8F7F12C09C0FC2EB6018C2FD1
:103260000E949B0D0E94B80D019799F38F2DDF915D
:10327000CF911F910F91FF90DF90CF900895CF9342
:10328000DF93EC01CDDFBE010E949B0D0E94B80DC3
:10329000DF91CF910895292F9E3078F5863068F51B
:1032A00090E036E0239F800D911D1124682F6770F8
:1032B00023E0969587952A95E1F7FC01EE0FFF1F15
:1032C000E80FF91FEE57FD4F40E050E080E02191FC
:1032D00030E0062E02C0369527950A94E2F7217059
:1032E0003327042E01C0220F0A94EAF7822B4F5F86
:1032F0005F4F4330510559F7089580E00895292F15
:103300009E3088F5863078F590E036E0239F800D7A
:10331000911D1124282F277051E001C0550F2A95C7
:10332000EAF723E0969587952A95E1F7FC01EE0FE1
:10333000FF1FE80FF91FEE57FD4F20E030E070E06F
:103340004081CB01022E02C0969587950A94E2F740
:103350008170819584278523842781932F5F3F4F38
:103360002330310569F708950E94BF070E94A40326
:103370008093C101089521E030E001C0220F8A95B9
:10338000EAF720958091C1018223EECF21E030E061
:1033900001C0220F8A95EAF78091C101822BE4CF08
:1033A000CF93C82F8091C1018C2B0E94BF07C0937F
:1033B000C001CF910895FC0124812223D1F08081A6
:1033C00091815DDF92959F70963079F010F4925064
:1033D00001C09A50923068F4803F69F018F4883E3A
:1033E00040F409C0843F29F406C0883E20F0813FA4
:1033F00011F080E0089581E00895109231028091EB
:103400001001813041F480917B0287FF04C08EE17E
:10341000E7E5F2E003C086E0EFE4F2E0DF011D92B1
:103420008A95E9F780E090E0C7DE80E090E09FDEDB
:10343000109208020C94D40E882321F00E94CD0E25
:103440000C94D40E0895882339F090913102892B81
:10345000809331020C94D40E0895882311F19CEFCF
:10346000980F913A10F41EDE0DC090E2980F98303C
:1034700058F4877091E001C0990F8A95EAF7892F77
:103480000E94CD0E0C94D40E9BE5980F933018F447
:1034900080E090E091CE885A8B3118F480E090E083
:1034A00066CE0895CF93882309F461C0C82F8CEFAE
:1034B0008C0F813A90F5809110018130E1F4809178
:1034C0007B0287FF18C0EC2FE695E695E695F0E0C5
:1034D000EB5AFD4F8281282F30E04C2F477081E05E
:1034E00090E002C0880F991F4A95E2F78223932348
:1034F000892B61F40FC0EFE4F2E085E592E02191C1
:10350000C21721F08E179F07D1F704C08C2FCADD98
:103510000E94D40E8C2FF4DD10C080E28C0F883016
:1035200078F4C77081E090E001C0880FCA95EAF78F
:1035300090913102892B809331020E94D40E17C0E2
:10354000EBE5EC0FE33038F4F0E0EF5BFE4F808109
:1035500090E032DE0CC0C85ACB3148F4EC2FF0E0DA
:10356000EE0FFF1FEC5BFE4F8081918100DECF915B
:103570000895EF92FF920F931F93CF93DF93182F2D
:10358000EB011092BC0084EA8093BC004DDD7C010D
:103590008091BC0087FD0CC0CF3F8FEFD807C1F3EF
:1035A000C70177DDC817D90798F78EEF9FEF2BC0BB
:1035B0008091B900887F883041F08091B900887F80
:1035C000803119F08FEF9FEF1EC01093BB0084E88D
:1035D0008093BC0029DD8C018091BC0087FD0AC06E
:1035E000CF3F8FEFD807C1F3C80153DDC817D90704
:1035F00098F7DBCF8091B900887F883111F0803453
:1036000009F780E090E0CDB7DEB7E6E085C1109223
:10361000B9008CE08093B80008950F931F93CF9367
:10362000DF93EB018093BB0084E88093BC00FCDC5B
:103630008C018091BC0087FD0CC0CF3F8FEFD80775
:10364000C1F3C80126DDC817D90798F78EEF9FEFA1
:103650000CC02091B900287F81E090E0283211F45D
:1036600080E090E0919581959109DF91CF911F9134
:103670000F9108950F931F93CF93DF93EC0184EC88
:103680008093BC00D1DC8C018091BC0087FD0CC014
:10369000CF3F8FEFD807C1F3C801FBDCC817D907AC
:1036A00098F78EEF9FEF03C08091BB0090E0DF9111
:1036B000CF911F910F9108950F931F93CF93DF9395
:1036C000EC0184E88093BC00AFDC8C018091BC00ED
:1036D00087FD0CC0CF3F8FEFD807C1F3C801D9DCFD
:1036E000C817D90798F78EEF9FEF03C08091BB00F2
:1036F00090E0DF91CF911F910F910895A0E0B0E08D
:10370000E3E8FBE1E5C0682E762E5A0169018CDC06
:103710004C010431110550F00F3F8FEF180749F0AD
:10372000C80164E170E0BCD0EB0105C0C1E0D0E0AD
:1037300002C0C5E0D0E0BE01862D1BDF7C0197FFF3
:103740000AC00F3F8FEF1807B1F3C401A2DC0817BE
:10375000190788F711C0B801872D5FDF7C01E501EB
:10376000CA0CDB1CCC15DD0539F0F7FC05C0B8012F
:10377000899153DF7C01F6CF84E98093BC00C701B7
:10378000CDB7DEB7EEE0C0C0A0E0B0E0E9ECFBE111
:103790009FC0782E662E7A01E90146DC5C01043177
:1037A000110550F00F3F8FEF180751F0C80164E189
:1037B00070E076D06B0107C0CC24C394D12C03C039
:1037C00025E0C22ED12CB601872DD3DE4C0197FF08
:1037D0000AC00F3FEFEF1E07B1F3C5015ADC08170F
:1037E000190788F727C0B801862D17DF4C0197FD10
:1037F00021C0F72DF1607F2E17DC5C01043111052B
:1038000018F10F3F8FEF180719F1C80164E170E05C
:1038100047D06B01B601872DACDE4C0197FD1CC073
:1038200067012197C6018E199F098C179D0748F5DE
:1038300097FE1CC084E98093BC00C40118161906C9
:103840005CF580E090E028C0CC24C394D12CE2CF7A
:1038500085E0C82ED12CDECF0F3FEFEF1E07D1F24F
:10386000C50117DC08171907A8F6DACFC80102DF6F
:103870004C0197FD02C0F6018083FFEFCF1ADF0AEB
:10388000D1CF97FCD7CFC80117DF4C0197FDD2CF1E
:10389000CE0DDF1D8883CECFCDB7DEB7EEE034C0CE
:1038A000AA1BBB1B51E107C0AA1FBB1FA617B70766
:1038B00010F0A61BB70B881F991F5A95A9F7809582
:1038C0009095BC01CD0108952F923F924F925F9247
:1038D0006F927F928F929F92AF92BF92CF92DF9220
:1038E000EF92FF920F931F93CF93DF93CDB7DEB785
:1038F000CA1BDB0B0FB6F894DEBF0FBECDBF099419
:103900002A88398848885F846E847D848C849B846F
:10391000AA84B984C884DF80EE80FD800C811B817D
:10392000AA81B981CE0FD11D0FB6F894DEBF0FBEAC
:10393000CDBFED010895F999FECF92BD81BDF89AF2
:10394000992780B50895A6E1B0E044E050E025C095
:10395000A8E1B0E042E050E020C0262FF999FECF68
:1039600092BD81BDF89A019700B4021639F01FBAD2
:1039700020BD0FB6F894FA9AF99A0FBE08950396EF
:10398000272FECDFEADF252FE9DF242FE7CF019691
:10399000272FE4DFE2CFDC01CB01FC01F999FECF58
:1039A00006C0F2BDE1BDF89A319600B40D924150C7
:1039B0005040B8F70895EE0FFF1F0590F491E02DE9
:1039C0000994FB01DC0104C08D910190801921F460
:1039D00041505040C8F7881B990B0895F894FFCFC9
:1039E00093169617911792168C17A91720000000AE
:1039F0000100F0F1F4F5F6F70000000000000030DF
:103A0000313233929366010101010101010000008E
:103A100000000000376D4B6C622F5862705962795C
:103A200000818283E200E900EA00B500B600B70039
:103A3000CD008301CC008A0192019401210223026E
:103A400024022502260227022A02B300B4006F00D6
:103A500070009F01CB019F02A00244226FB303912B
:0A3A600003220309042204420400BB
:00000001FF
