:100000001FC300003AC3000038C3000036C300001D
:1000100034C3000032C3000030C300002EC3000010
:100020002CC300002AC300000C943E1B0C942C1C13
:100030000C941A1722C3000020C300001EC3000046
:100040001CC300001AC3000018C3000016C3000040
:1000500014C300000C94141B10C300000EC3000056
:100060000CC300000AC3000008C3000006C3000060
:1000700004C3000002C3000000C30000FEC2000071
:10008000FCC20000FAC20000F8C20000F6C2000084
:10009000F4C20000F2C20000F0C20000EEC2000094
:1000A000ECC20000EAC20000E8C200000660FF09DE
:1000B00061A1010962150026FF00952075088102E3
:1000C0000963150026FF00952075089102C00501FF
:1000D0000980A10185031A01002A8F00160100265C
:1000E0008F00950175108100C0050C0901A10185E3
:1000F0000419012AA002150126A00295017510819C
:1001000000C005010906A1018506050719E029E7D8
:10011000150025019508750181020507190029EFD1
:100120001500250195F075018102050819012905C1
:10013000950575019102950175039101C0050109AD
:1001400006A101050719E029E715002501950875A5
:100150000181029501750881010507190029FF1524
:100160000026FF009506750881000508190129057C
:100170001500250195057501910295017503910101
:10018000C009025B00030100A0FA0904000001039A
:10019000010100092111010001224400070581032A
:1001A00008000109040100020300000009211101F7
:1001B0000001222200070582032000010705030336
:1001C00020000109040200010300000009211101BF
:1001D0000001226F000705840320000112010002C4
:1001E00000000008973274490001010203011A035C
:1001F00037006D004B006C0062002F005800620059
:10020000700059006200790000001603450072007A
:1002100067006F0064006F007800200045005A00FE
:10022000000028035A0053004100200054006500DC
:10023000630068006E006F006C006F00670079005B
:1002400020004C00610062007300000004030904F8
:1002500035002B003900E100510000001E001400A1
:1002600004001D0050004B001F001A0016001B0068
:10027000E20028002000080007000600E3002C0030
:100280002100150009001900E0004A0022001700B3
:100290000A0005000000AC00AA0030000000310098
:1002A00000004600A900340000002E000000AE004F
:1002B00023001C000B0011000000AB0024001800FC
:1002C0000D001000E4004D0025000C000E0036006B
:1002D000E7002A00260012000F003700E600290080
:1002E00027001300330038004F004E002D002F0070
:1002F0002152E500520000004500010002520100B9
:10030000010000003A0001000100010001000100AD
:100310003B00010001000100010001003C00010060
:1003200001000100010001003D0001000100010089
:10033000010001003E000100010001000000010079
:1003400001000100000001000000010001000100A7
:1003500000000100000001003F0001000100010059
:100360000000010040000100010001000100010047
:1003700041000100010001000100010042000100F4
:100380000100010001000100430001000100010023
:100390000100010044000100010001000100000013
:1003A0003D003B003A003C003E000000010001001F
:1003B000010001003F0001000100010001000100F7
:1003C0000100235201000100010001000100E100D1
:1003D0000100010001000100010001000100010015
:1003E000010001000000417E290024520000255236
:1003F00000000100005201000000010000000100A7
:1004000001000100010001000000010001000100E5
:1004100001000100010001000100010001000100D4
:10042000010001000100010001000100010028009D
:1004300001000100010001000100010001000100B4
:1004400001000100010000000100010001000100A5
:100450000100000023000100010001000100010073
:10046000240001000100010001000100250001003D
:10047000010001000100010026000100010001004F
:10048000010001002700010001000100000001003F
:100490000100010000000100000001000100010056
:1004A0000000010000000100010001000100010046
:1004B0000000010001000100010001000100010035
:1004C0000100010001000100010001000100010024
:1004D0000100010001000100010001000100010014
:1004E0000100010001000100010001000100000005
:1004F00001000100010001000100000023010100D2
:1005000001000100010001002401010001000100BF
:1005100001000100250101000100010001000100AE
:100520002601010001000100010001002701010076
:1005300001000100000001000100010000000100B5
:1005400000000100010001000000010000000100A6
:100550000100010001000100000001000100010094
:100560000100010001000100010001000100010083
:100570000100010001000100010001000100010073
:100580000100010001000100010001000100010063
:100590000100010001000000010001000100010054
:1005A0000100000023020100010001000100010020
:1005B00024020100010001000100010025020100E8
:1005C00001000100010001002602010001000100FC
:1005D00001000100270201000100010000000100EC
:1005E0000100010000000100000001000100010005
:1005F00000000100000001000100010001000100F5
:1006000000000100010001000100010001000100E3
:1006100001000100010001000100010001000100D2
:1006200001000100010001000100010001000100C2
:1006300001000100010001000100010001000000B3
:1006400011241FBECFEFDAE0DEBFCDBF11E0A0E086
:10065000B1E0E6E0FEE302C005900D92A234B107DE
:10066000D9F722E0A2E4B1E001C01D92AB35B20798
:10067000E1F70E94F0170C94AF1EC2CCA0E0B0E0EE
:10068000E4E4F3E00C94351EABE3B1E041E0F89410
:100690008D91E82FE295EF70F0E021A18F70642F2B
:1006A00001C0660F8A95EAF7962F9095922391A341
:1006B00092A1862F892B82A3789481E0A134B80778
:1006C00031F7E2E00C94511EA0E0B0E0EAE6F3E07E
:1006D0000C94351E90E0FC01E35DFE4F208121115A
:1006E00018C0F894815E9E4FFC012081E22FE295B4
:1006F000EF70F0E031A12F7081E001C0880F2A95E2
:10070000EAF7982F9095932391A392A1892B82A326
:100710007894E2E00C94511EEF92FF921F93CF93D6
:10072000DF93CDB7DEB784E391E07C0117E0F701FA
:1007300081917F01811102C0812FC6DF1F5F1E30B2
:10074000B1F7DF91CF911F91FF90EF900895A0E056
:10075000B0E0EDEAF3E00C94351E259A2D9AE2E024
:100760000C94511EA0E0B0E0E8EBF3E00C94351ED1
:10077000269A2E9AE2E00C94511EA0E0B0E0E3EC41
:10078000F3E00C94351E279A2F9AE2E00C94511E48
:10079000A0E0B0E0EEECF3E00C94351E25982D9827
:1007A0002D98E2E00C94511EA0E0B0E0EAEDF3E0F9
:1007B0000C94351E26982E982E98E2E00C94511E2B
:1007C000A0E0B0E0E6EEF3E00C94351E27982F98F9
:1007D0002F98E2E00C94511EA0E0B0E0E2EFF3E0CD
:1007E0000C94351E982F92959F7071F420E0982FED
:1007F000892F8695869511F02E5F982F892F8695E3
:10080000820FE2E00C94511E24E0F2CFA0E0B0E0B1
:10081000ECE0F4E00C94331E082FDEDF182F5E9816
:10082000B7DFC2DFCDDF163051F0173039F01130AD
:1008300009F48DDF802FE4E00C944F1E88DF92DFF7
:100840009CDFF8CFA0E0B0E0E8E2F4E00C94351EC5
:10085000885A8B3108F056C0E82FF0E0EF54F14E83
:100860000C945C1E82EE90E0E2E00C94511E8AEE45
:1008700090E0FACF85EB90E0F7CF86EB90E0F4CFF5
:1008800083EB90E0F1CF84EB90E0EECF87EB90E04C
:10089000EBCF8CEC90E0E8CF8DEC90E0E5CF83E8F7
:1008A00091E0E2CF8AE891E0DFCF82E991E0DCCF0E
:1008B00084E991E0D9CF8FE991E0D6CF8BEC91E03C
:1008C000D3CF81E292E0D0CF83E292E0CDCF84E239
:1008D00092E0CACF85E292E0C7CF86E292E0C4CF31
:1008E00087E292E0C1CF8FE690E0BECF80E790E054
:1008F000BBCF8AE292E0B8CF8FE992E0B5CF80EA31
:1009000092E0B2CFCD01B0CF89EE90E0ADCFA0E0C4
:10091000B0E0EDE8F4E00C94351E292F9E3088F508
:10092000863078F590E036E0239F800D911D1124EC
:1009300051E081FD54E080FD550F82FD529523E08A
:10094000969587952A95E1F7FC01EE0FFF1FE80FBA
:10095000F91FE852FE4F9D0170E04191DF01CB018C
:10096000022E02C0969587950A94E2F78695880B29
:100970008427852384278E932F5F3F4F23303105B3
:1009800061F7E2E00C94511EA0E0B0E0EAECF4E084
:100990000C94351E292F9E3078F5863068F590E04E
:1009A00036E0239F800D911D1124682F677023E08E
:1009B000969587952A95E1F7FC01EE0FFF1FE80F4A
:1009C000F91FE852FE4FAD0180E0219130E0062E84
:1009D00002C0369527950A94E2F72170042E01C0D3
:1009E000220F0A94EAF7822B4F5F5F4F4330510585
:1009F00061F7E2E00C94511E80E0FBCFA0E0B0E094
:100A0000E4E0F5E00C94351EE091070290910602B7
:100A1000E91304C080E0E2E00C94511E9F0157E00E
:100A2000E59FF0011124E85FFD4F5181561306C088
:100A30005081581303C05581541305C02F5F3F4F99
:100A4000F901E770E5CF81E0E6CFA0E0B0E0EBE2AE
:100A5000F5E00C94351E80910702209106022813C0
:100A600003C0E2E00C94511E01968770F8CFA0E01D
:100A7000B0E0EDE3F5E00C94351E8091FE0190911D
:100A80000502892B9091FF019030C9F0892B90913C
:100A90000E01913021F49091030297FD13C096E06E
:100AA00026E431E040E09150F90150812F5F3F4F43
:100AB00051114F5F9111F7CF41111092FF01E2E008
:100AC0000C94511E9EE12EE431E0ECCFA0E0B0E0AA
:100AD000ECE6F5E00C94351E8095982F8091FE0190
:100AE00089238093FE01E2E00C94511EA0E0B0E067
:100AF000ECE7F5E00C94351E972F7E30D8F4663085
:100B0000C8F48630D0F470E026E0929F600D711D2D
:100B1000112494E5899F600D711D1124FB01EE0FD6
:100B2000FF1FE05BFD4F85919591282F822FE2E01A
:100B30000C94511E20E090E0F9CF21E0FCCFA0E022
:100B4000B0E0E5EAF5E00C94351E803E910509F42D
:100B50004BC0F0F48133910509F481C058F4893217
:100B6000910509F471C08A32910509F47FC0E2E071
:100B70000C94511E8933910559F18238910541F148
:100B800085339105A1F72091030225FFF0CF29C0FD
:100B9000843E910509F446C048F4823E910591F1E6
:100BA000833E9105A1F181EE90E0E1CF863E910573
:100BB00009F443C0873E9105D1F62091030223FD3D
:100BC00062C03091040231FF2AC084EE90E0CFCFA2
:100BD00020910302237009F053C02091040223FFE7
:100BE000C6CF89E290E0C3CF2091030220FD34C03C
:100BF0003091040230FFBBCF83EE90E024FFB7CFEB
:100C0000CD01B5CF2091030222FDF6CFB0CF2091C8
:100C1000030222FD32C03091040230FD31C024FFB6
:100C2000A6CFEECF2091040221FFA1CF8091030235
:100C300084FDE6CF87EE90E09ACF2091030223FF58
:100C400096CF24FDDDCFF6CF2091030225FD1EC0F7
:100C50002091040223FF8BCF89E390E088CF20917D
:100C6000030226FF84CF8AE290E081CF2091030225
:100C700026FF7DCF81E390E07ACF82EE90E077CFC0
:100C800080EE90E074CF86EE90E071CF85E390E047
:100C90006ECFA0E0B0E0EFE4F6E00C94351E90914A
:100CA000030292FF10C041E0282F2471243009F084
:100CB00040E031E0282F2871283009F030E0431758
:100CC00011F02CE0822793FF10C041E0282F2471FF
:100CD000243109F040E031E0282F2871283109F053
:100CE00030E0431711F02CE082273091040230FFEE
:100CF00010C051E0282F2171213009F050E041E06F
:100D0000282F2871283009F040E0541711F029E00D
:100D1000822731FF10C041E0282F2171213109F0D5
:100D200040E031E0282F2871283109F030E04317E6
:100D300011F029E0822794FD877EE2E00C94511E99
:100D4000A0E0B0E0E6EAF6E00C94311EF8DE8C019B
:100D5000123508F044C0103508F0C1C0003E11053E
:100D6000F8F40D3C110508F099C0083A110578F423
:100D7000053A110508F087C00130110561F1C8017D
:100D80000497813A904038F100E010E024C0C80197
:100D9000885A90404B97C0F7802F54DD946466C00A
:100DA000103490F4103208F0AFC0083E110598F0EE
:100DB000C80191509F3140F7812F6BDFE82E802FC3
:100DC00090E0BDDE9E2952C0802F90E0B8DE1F70FB
:100DD000082F192B106AC801E6E00C944D1E00384C
:100DE00082E51807B8F5003682E5180708F05DC0FF
:100DF000003482E51807C8F4003282E5180708F0CD
:100E00004FC0802F8695869520E2829FC0011124D5
:100E1000037021E030E002C0220F331F0A95E2F791
:100E20008901082B192B1D68D6CF802F86958695B2
:100E3000877020E2829FC0011124037021E030E01E
:100E400002C0220F331F0A95E2F78901082B192BE4
:100E50001C68C1CF003C82E5180750F4802F8F71C9
:100E6000003A1245B8F5982F84EF906A8C01B3CF01
:100E7000C801805C9245809708F086CF102F1F71C3
:100E800000EF106AA8CF063A29F0073A29F001E8E6
:100E900010E4A1CF02E8FCCF03E8FACF10659BCFA6
:100EA0000F71102F01EF106A96CF802F86958695CF
:100EB000877020E2829FC0011124037021E030E09E
:100EC00002C0220F331F0A95E2F78901082B192B64
:100ED0001A6881CFDEDE00E0182F10627CCF802FF1
:100EE0008F71D7DE93E0000F111F9A95E1F71F7005
:100EF000282F30E084FF04C090E1899F90011124E5
:100F0000022F132B106967CF812F8F71C2DEE82E5D
:100F1000802F90E014DE9E298C01DFCFAF92BF922C
:100F2000DF92EF92FF920F931F93CF93DF93CDB792
:100F3000DEB75C01E090010280914802E82A07E0F8
:100F400010E0F12CC701002E02C0959587950A94F8
:100F5000E2F780FD0FC001501109A0F7D12C8D2DB3
:100F6000DF91CF911F910F91FF90EF90DF90BF9095
:100F7000AF900895D02EB501802FB8DDE1DE019746
:100F800051F3EDCFA0E0B0E0E8ECF7E00C94321EB6
:100F9000FC01258100811181C801203069F0603099
:100FA00059F0BCDFF82E682FC801B1DCB8018F2DD5
:100FB0009DDDE5E00C944E1EE7DCF82EF7CFA0E0B7
:100FC000B0E0E5EEF7E00C94331E8C01A7DFB8012A
:100FD0008DDDB6DEE4E00C944F1EA0E0B0E0E3EF60
:100FE000F7E00C94351EFC0124812030A1F08081B3
:100FF0009181E5DF282F92959F709630B1F068F4CB
:10100000925F9F70923038F481E0203F59F038F4BD
:1010100081E0283E38F080E005C09A5FF2CF81E0A1
:10102000243FC9F7E2E00C94511E91E0213F09F002
:1010300090E081E0283E08F080E0892BF3CFA0E02B
:10104000B0E0E5E2F8E00C94351E80E0E2E00C94BC
:10105000511EA0E0B0E0EFE2F8E00C94351EE09104
:10106000CE01F091CF01309749F00190F081E02D51
:10107000309721F00995E2E00C94511E80E0FBCFFF
:10108000A3E0B0E0E6E4F8E00C94351E2091810185
:101090003091820128173907B1F080938101909334
:1010A0008201E091CE01F091CF01309761F0008490
:1010B000F185E02D309739F023E029838A839B83E3
:1010C000CE01019609952396E2E00C94511EA3E00F
:1010D000B0E0EDE6F8E00C94351E20917F013091F0
:1010E000800128173907B1F080937F019093800128
:1010F000E091CE01F091CF01309761F00084F1854D
:10110000E02D309739F024E029838A839B83CE0138
:10111000019609952396E2E00C94511EA0E0B0E000
:10112000E4E9F8E00C94351E90910E019130C1F085
:10113000A6E4B1E0EFEF90E02C91821739F111961F
:10114000EF3F19F4211101C0E92F9F5F9630A1F7FD
:10115000EF3FE1F0FE2FFF0FFF0BEC5BFE4F15C0E2
:101160009091030297FFE4CFE82FE695E695E69588
:10117000803F60F4F0E0E45BFE4F877021E001C047
:10118000220F8A95EAF78281822B8283E2E00C9417
:10119000511EA0E0B0E0EFECF8E00C94351E909109
:1011A0000E01913021F49091030297FD0CC0E6E40A
:1011B000F1E09191891302C0DF011E9291E0EC34BD
:1011C000F907B9F713C0E82FE695E695E695803F55
:1011D00068F4F0E0E45BFE4F9DEF81FD97EF80FF48
:1011E000959582FD9295828189238283E2E00C9419
:1011F000511EA0E0B0E0EFEFF8E00C94351E8091B6
:101200000D01E2E00C94511EA0E0B0E0EAE0F9E04C
:101210000C94351E88E19AE00FB6F894A895809357
:1012200060000FBE90936000FFCFA0E0B0E0EBE164
:10123000F9E00C94351EE2E00C94511EA0E0B0E001
:10124000E4E2F9E00C94351EFC0120917501309127
:1012500076012617370748F06030760729F4909119
:10126000E8009E779093E8009B0190E020303207E1
:1012700051F4911108C08091E80082FF34C080E0F1
:10128000E2E00C94511E809199018030C1F18530CB
:10129000C1F18091E80083FD30C08091E80082FDBB
:1012A000EACF8091E80080FFE1CF8091F300409188
:1012B000F200582F2030320719F04830510558F00D
:1012C00091E04830504009F090E04091E8004E77BE
:1012D0004093E800CBCF81918093F10021503040C2
:1012E0004F5F5F4FE7CF80919901803041F08530AB
:1012F00041F08091E80083FFBECF81E0C1CF82E062
:10130000BFCF83E0BDCFA0E0B0E0E9E8F9E00C9406
:10131000351E982F9093E900891771F07091EC00B9
:101320002091ED005091F00021FD09C09F5F9730A2
:1013300089F78093E9001CC0762F242F50E030916C
:10134000EB003E7F3093EB003091ED003D7F30931A
:10135000ED003091EB0031603093EB007093EC00C6
:101360002093ED005093F0002091EE0027FDDECF9A
:10137000E2E00C94511EA0E0B0E0E1ECF9E00C9446
:10138000351E80916F0187FF15C08091E80082FFB4
:1013900006C08091E8008B778093E80004C08091BC
:1013A00099018111F2CFE2E00C94511E80919901D4
:1013B0008030C9F38091E80080FFF8CF8091E80089
:1013C0008E77EACFA0E0B0E0E8EEF9E00C94351EAD
:1013D0002091E4003091E50095E6A9012091EC0010
:1013E000822F817020FF06C08091E80080FF06C038
:1013F00080E018C02091E80022FD14C0809199017E
:10140000803099F0853099F08091EB0085FD11C016
:101410002091E4003091E50042175307F9F2915012
:10142000E1F684E0E2E00C94511E82E0FBCF83E021
:10143000F9CF81E0F7CFA0E0B0E0E1E2FAE00C9470
:10144000351EA8ED8C918F7E8C93E7EDF0E08081C6
:101450008160808384E082BF81E080936E01E8ED4B
:1014600080818E7F8083A2EE1C921092DA00A1EE22
:101470001C9280818F7780838081806880838081C7
:101480008F7D808319BC1092990110926D0110928A
:10149000840110926C01A0EE8C918B7F8C938081E3
:1014A0008160808342E060E080E02DDFE1EEF0E0EB
:1014B00080818E7F8083A2EEB0E08C9181608C93DE
:1014C0008C9188608C93A0EE8C918E7F8C93E8ED4C
:1014D000808180618083E2E00C94511EA0E0B0E046
:1014E000E4E7FAE00C94351EA8ED8C918E7F8C9386
:1014F0001092E2001092DA001092E100E0EEF0E0CB
:101500008081816080838C918F778C9319BCE7ED0B
:1015100080818E7F80838C918F7E8C9310926E0160
:10152000E2E00C94511EA1E0B0E0E9E9FAE00C948D
:10153000331E8730F8F42091100130911101232BD4
:10154000A9F49D0101C0220F8A95EAF7209529830D
:101550000AE010E09D01AE014F5F5F4F62E180E461
:101560000E94391D80931001909311012196E4E0AF
:101570000C944F1E90E0FC01E35DFE4F2081211191
:10158000F5CFF894815E9E4FFC012081E22FE29519
:10159000EF70F0E031A12F70CD0101C0880F2A95C6
:1015A000EAF7932F982B91A392A18095892382A388
:1015B0007894DCCFA0E0B0E0E0EEFAE00C94351EC9
:1015C000F89481E08093E00080E28093D800E9EC19
:1015D000F0E010828FE19EE40197F1F700C0000077
:1015E0001DBA109268001CBC10BE1FBA10927A007F
:1015F00010926E0010926F001092710010927200A3
:101600001082ECEB108214B817B81AB81DB810BAD3
:10161000108215B818B81BB81EB811BA0C94003F48
:10162000E2E00C94511EA0E0B0E0E9E1FBE00C9494
:10163000311E8B017A0190919901943071F580935C
:10164000E9008FEF9091E80095FD06C095ED9A9521
:10165000F1F700008150B1F78091E80085FF1DC0CF
:10166000B1DE811115C08091E80085FD06C0809132
:10167000E8008E778093E800F3CFF80180818093B3
:10168000F10081E0E81AF10819F00F5F1F4FEBCF6E
:101690008091E8008E778093E800E6E00C944D1E80
:1016A000A0E0B0E0E6E5FBE00C94351E603229F4E2
:1016B00040E250E0BC0182E0B6DFE2E00C94511E53
:1016C000A0E2B0E0E6E6FBE00C94351E9FEF9983C4
:1016D0008A8360E2CE010196E3DFA096E2E00C94FB
:1016E000511EA0E2B0E0E7E7FBE00C94341E182F97
:1016F000809149028030D9F080914802812B6CD8CA
:1017000090914702981799F0809347028FE39CE9E4
:101710000197F1F700C0000085E0898380914702BE
:101720008A838EEF8B8360E2CE010196B9DF812F31
:10173000A096E3E00C94501EA0E0B0E0E2EAFBE0EB
:101740000C94341E182F80910102812BCADF109354
:101750004802E3E00C94501EA0E0B0E0E2EBFBE0B6
:101760000C94351EBEDF52D880930102E2E00C9447
:10177000511EA0E0B0E0EFEBFBE00C94351E21E041
:1017800001C0220F8A95EAF780910102822BE4DFE3
:10179000E2E00C94511EA0E0B0E0E1EDFBE00C941F
:1017A000351E21E001C0220F8A95EAF7822F80952D
:1017B000909101028923D0DFE2E00C94511EA0E059
:1017C000B0E0E5EEFBE00C94351E909102028095AE
:1017D000892380930202282F277061F4891751F022
:1017E0009091040292FF06C0869586958695D3DF78
:1017F00010920202E2E00C94511EA0E0B0E0E3E09F
:10180000FCE00C94331E8C0148E050E0BC0181E008
:101810000ADF88E0F801A7E7B1E001900D928A9510
:10182000E1F7E4E00C944F1EA0E0B0E0EAE1FCE058
:101830000C94351E40E250E0BC0184E0F4DEE2E0AE
:101840000C94511EA0E0B0E0E8E2FCE00C94351EE0
:1018500043E050E0BC0184E0E6DEE2E00C94511E7F
:10186000A2E0B0E0E6E3FCE00C94331E80E280935B
:1018700010011092110180915A0281110EC00E9434
:10188000C61C81E080935A028FEF93ED20E38150D4
:1018900090402040E1F700C000009FE319829A8346
:1018A0000AE010E022E030E0CE010196AC0160E0F9
:1018B00080E40E94391D80931001909311010097DC
:1018C00069F422E030E0CE010196AC016CE080E4E6
:1018D0000E94391D80931001909311012296E4E03B
:1018E0000C944F1EA1E0B0E0E8E7FCE00C94321E3F
:1018F000F82E873030F5809110019091110110E0A1
:10190000892B89F419820AE010E09D01AE014F5F36
:101910005F4F63E180E40E94841D809310019093E7
:101920001101198110951F73EF2DF0E0E45BFD4F5D
:101930008081811771F1108381E02196E5E00C949C
:101940004E1EF1DDABE3B1E020E030E010E04D9160
:10195000E42FE295EF70E05EF0E0808190E04F7060
:1019600002C0959587954A95E2F780FD10C081E009
:10197000022E01C0880F0A94EAF7182B2F5F3F4F01
:101980002630310521F78F2D0E946403CCCF80E0F3
:10199000F4CF80E0D2CFA0E0B0E0E1EDFCE00C9429
:1019A000351E9091040292FB222720F9281771F02E
:1019B00080FB92F9909304026091030270910402FB
:1019C00084E090E00E948E1E82E0F9DEE2E00C945A
:1019D000511EA0E0B0E0EFEEFCE00C94351E8091CB
:1019E0000E01813071F58091030287FF2AC03FD834
:1019F00080934D0140E250E06EEA71E08CE491E0AA
:101A00000E94A21E892BD1F080E2ECE4F1E0AEEA64
:101A1000B1E001900D928A95E1F7E091CE01F0914D
:101A2000CF01309759F00480F581E02D309731F0E7
:101A300086E080934C018CE491E00995E2E00C94FF
:101A4000511E15D88093440148E050E060ED71E0EC
:101A500084E491E00E94A21E892B81F388E0E4E4F3
:101A6000F1E0A0EDB1E001900D928A95E1F7E091EF
:101A7000CE01F091CF01309709F30280F381E02D80
:101A80003097E1F284E491E0D8CFA0E0B0E0EBE45D
:101A9000FDE00C94341E182F8030C9F08450813A38
:101AA00080F580910E01813021F48091030287FD41
:101AB00011C0E6E4F1E08CE491E020811217E9F036
:101AC00031968E179F07C9F7812F28DB82DFE3E06D
:101AD0000C94501EE12FE695E695E695F0E0E45B68
:101AE000FE4F828190E0412F477021E001C0220F1C
:101AF0004A95EAF78223892B39F3812F4ADB69DF84
:101B0000E3CF812F805E883060F4177081E001C0E0
:101B1000880F1A95EAF71091FE01182B1093FE0119
:101B2000D5CF812F855A833060F482E890E0163A51
:101B300031F081E890E0173A11F483E890E0A0DA00
:101B4000C6CF812F885A8B3108F0C1CF812F0E94D8
:101B50002204BDDABCCFA0E0B0E0E1EBFDE00C94E4
:101B6000351E803031F0982F9450913A28F411DBD3
:101B700030DFE2E00C94511E982F905E983058F4BC
:101B8000982F81E091FD84E090FD880F92FD829571
:101B90000E946605EDCF982F955A933018F4CD0129
:101BA0006FDAE7CF885A8B3120F7CD0190DAE1CF99
:101BB000A0E0B0E0EEEDFDE00C94351E803031F099
:101BC0009091FE01982B9093FE0103DFE2E00C94CC
:101BD000511EA0E0B0E0EFEEFDE00C94351E803029
:101BE00019F00E946605F5DEE2E00C94511EA0E0BB
:101BF000B0E0EDEFFDE00C94351E1092FE018091F7
:101C00000E018130A9F48091030287FF11C0EEE438
:101C1000F1E08EE111928A95E9F7CD0131DA80E0A9
:101C200090E055DA10920502D4DEE2E00C94511EE9
:101C3000E6E4F1E086E0EECFA0E0B0E0E2E2FEE034
:101C40000C94351ED4DF8FEF94E32CE0815090404C
:101C50002040E1F700C00000D7DAA0E0B0E0E3E305
:101C6000FEE00C942D1E6C01FC018481803009F48F
:101C700073C061E0C60186D98C01F601858101300F
:101C80009EE7190709F052C0803099F18091F9015F
:101C90008F5F8770982F853010F080E090E0209162
:101CA000F901287F922B9093F9012FEF829FC001B9
:101CB00011249595879595958795909389008093A4
:101CC000880090938B0080938A0090938D0080937E
:101CD0008C004091F9015091FA016091FB017091E3
:101CE000FC018FE090E00E94861E809101020E941C
:101CF0000604F6018581803009F470C398013057DD
:101D00002332304008F078C384E090E00E946F1ED8
:101D10008093030290930402F801E150F047E2320D
:101D2000F10500F5E453F14E0C945C1E01349EE77E
:101D30001907F9F6803099F083E03ADF80910202CA
:101D4000877051F0F6018581803031F08091040276
:101D500082FF02C082E033DDEAE00C94491E83E09A
:101D600038DFECCF809103028160809303026091A1
:101D700003027091040284E090E00E948E1E37DF1F
:101D8000DDCF80910402886080930402F0CF8091BF
:101D900003028260EACF809103028460E6CF8091E3
:101DA00003028860E2CF809104028160EDCF8091D0
:101DB00004028260E9CF809103028061D6CF8091D6
:101DC00003028062D2CF809103028064CECF0FDF06
:101DD000809103028068C9CF809103028C60C5CFD7
:101DE000809104028360D0CF809103028E7FBDCFAB
:101DF00080910402877FC8CF809103028D7FB5CF89
:101E0000809103028B7FB1CF80910302877FADCF9A
:101E1000809104028E7FB8CF809104028D7FB4CF71
:101E2000809103028F7EA1CF809103028F7D9DCF91
:101E3000809103028F7B99CFDADE809103028F7746
:101E400094CF80910302837F90CF809104028C7F96
:101E50009BCF90910302892F8B7F92FF8460877FB5
:101E600092FF886082CF80910402982F909590FB1A
:101E700080F990FB81F988CF90910302892F8F7BA5
:101E800096FF806472CFB3DE90910302892F97FB97
:101E900087F980586ACF61E08EE090E00E94741E5E
:101EA00066CF60E0F9CF90910302892F8F7E94FF77
:101EB00080615BCF90910302892F8E7F90FF8160BC
:101EC00054CF90910402892F877F93FF88605CCF65
:101ED00089E2A4C289E28DC29801205E3245203297
:101EE000304098F4811129C00F7181E090E002C068
:101EF000880F991F0A95E2F78C01682F83E090E024
:101F00000E94741E802F18DC19CF8030B1F00A3582
:101F10008CE7180709F497C008F072C001308CE70D
:101F2000180709F48FC003308CE7180709F484C040
:101F300000308CE7180709F473C0F6018581E08052
:101F4000F180803009F483C0C7010E948E07182FEA
:101F5000682FC7010E948704B701812F0E94760570
:101F60000E94A0068C01F601A580E680E2942FE095
:101F7000E222809102028770F9F0BA2CA114E9F0F4
:101F8000812F807F803461F0802F805E8830A0F0C8
:101F9000812F807E803221F4023070F0E11461F0F4
:101FA0008091040282FF08C082E009DC8091020275
:101FB0008770BB24B3948111B12C812F82958F70CF
:101FC000883009F424C108F05FC0843008F044C0B0
:101FD000823008F469C0812F8F70F82E107F103284
:101FE00019F0F29480EFF822013008F494C009F45B
:101FF000D8C0A11409F4E1C0E11409F4A7C06CC071
:102000000B358CE7180709F10C351C4709F095CF03
:1020100080910402002482FF0394802DBCDC8DCFCC
:10202000E6DD8FEF94E32CE0815090402040E1F713
:1020300000C00000BFDA82CE6FEF7FEF80E090E05B
:102040000E948E1EF9DD81E0E9CF80E0E7CFC70175
:102050000E94C404182F80CF09F4BFC0B11409F442
:1020600004C18091020280FD00C1F60115828695AF
:10207000869586957EDBC601F0DD8091020286950D
:102080008695869588DBF1C0893009F432C18A5F74
:102090008F70823018F7023F09F038C1812F8F719D
:1020A000A11032C166DBDFC0812F8F70F82E103196
:1020B00018F0F29490EFF922A114B1F0F11461F04C
:1020C000802F805E883010F0011108C08091FE01E1
:1020D0008F298093FE017DDC802F2CC0809105022A
:1020E0008F2980930502F7CF802F35DDF11409F495
:1020F000B5CF802F805E883010F0011104C08F2D85
:102100000E94660506C0F094809105028F2180939D
:1021100005025FDCA3CF8091040282FD13C0A114ED
:1021200059F0F11431F08091FE018F298093FE0166
:1021300050DC80E0AADC92CF80E00DDDF11409F4E0
:102140008DCFDDCFA114A1F0E11003C08F2D30DDC4
:1021500085CF8E2D813009F081CF8091FF019F2D99
:102160009823F91609F47ACF8F298093FF0176CF4F
:10217000E11074CF8F2D2DDD9091FF018F2D8923DC
:1021800029F08F2D809589238093FF018091000293
:102190009F2D982309F462CFF094F822F092000268
:1021A0005DCFA11429F08E2D823008F057CFCECF0D
:1021B000E11054CF8F2D0DDD51CFE114D9F3093348
:1021C00049F48FEF97EE23E0815090402040E1F7F3
:1021D00000C00000802FBFDC41CF812F86958695FF
:1021E0008370813058F009F039CFC8019370A11085
:1021F00002C080E090E00E94670830CFC801937071
:10220000A11002C080E090E00E94400827CF812FFB
:102210008370C1F5A11027C0802F829586958770A5
:10222000880F880F402F4F70082E01C0440F0A946A
:10223000EAF7202F207104FF06C02FE001C0220F13
:102240008A95EAF720951695169513701230A9F025
:10225000822F842B133031F080914802113051F0DD
:10226000242B822369DA0E94290860E0C6010E94BB
:10227000C20772CD842B822BF5CF242B809148028C
:102280008227F0CFA11451F110FFEDCF802F82955E
:1022900086958770880F880F402F4F70082E01C0D9
:1022A000440F0A94EAF7202F207104FF06C02FE0A4
:1022B00001C0220F8A95EAF720951695169513709E
:1022C000123091F0822F842B133031F08091010273
:1022D000113039F0242B82233FDAC5CF823018F237
:1022E000D5CF842B822BF8CF242B8091010282271B
:1022F000F3CF1F70A11429F0812F3BDA802F58DC17
:10230000B2CF802F66DC812F46DAADCF68F4003F74
:10231000C1F0013F89F0A11409F44DC0E11409F4A2
:1023200047C0802FB2DB9FCF033FF9F0043F99F7FE
:102330009091040292FD25C0812F8F71A11421F389
:10234000B1CEA11469F0E1108ECF1F7181E0012E92
:1023500001C0880F0A94EAF7909101028927BCCF47
:102360008E2D823008F07FCFF0CF80E0A11409F4E9
:10237000B3CF1F7181E0012E01C0880F0A94EAF7E4
:10238000ABCFA11461F0812F8F7192FF8BCE982F6C
:10239000990F990F990F93609093020283CE81E079
:1023A0000EDA8E2D823008F45ECF82E008DA5BCF41
:1023B000812F8F7177CEE11471F0093349F48FEFDB
:1023C00097EE23E0815090402040E1F700C00000EC
:1023D000802FC1DB48CF812F8F7196CF06319CE7CC
:1023E000190709F079CD8091FD01803009F472CD93
:1023F00085E30E94C90814C006319CE7190709F05B
:102400006BCD8091FE018A7A91E0811101C090E04C
:102410009093FD01803009F45BCD85E30E948E0826
:10242000D8DA8CCCA0E0B0E0E8E1F2E10C94351E03
:1024300080914602803108F046C08091450280308C
:1024400009F441C0E0910702209106023091410257
:10245000409140022E17B9F1BF0187E0E89FF001DB
:102460001124DF01A85FBD4F14968C911497803022
:1024700069F111968C911197831328C08C91841364
:1024800025C015968C911597811120C012968D91BB
:102490009D91A0914202B09143028A1B9B0B883C04
:1024A0009040A0F4809146028F7080618093460234
:1024B000E25FFD4F80818F708061808380E492E0D5
:1024C000CCDB0E942505E2E00C94511E6F5F7F4F2C
:1024D000FB01E770BFCFADE0B0E0E1E7F2E10C94C3
:1024E0002A1E8C0186E0F801DE01189601900D92FB
:1024F0008A95E1F7F801F580C48080E4882E82E0B7
:10250000982E7090440271101FC0C114D1F0F114C4
:1025100009F415C1C8010E94ED07803009F40FC10C
:1025200087E0F801D40101900D928A95E1F78C2D96
:10253000813031F480914002909141020E94DF0786
:1025400071DFFF24F39453C0E080A280B380D09069
:10255000450280914202909143029501281B390B5C
:10256000D11409F4B5C0283C304008F08DC0C11426
:1025700041F390914102C18080914602803108F080
:1025800056C0C91213C0909140029E110FC0F110A5
:1025900048C08F7080618093460280E492E05DDBEA
:1025A00080914602F8018683F12C21C0F11039C0D8
:1025B00040E06C2D8E2D0E94FE0440E06C2D8E2D8F
:1025C0000E94FE04F82E8111EFCF888599850E9424
:1025D000DF07292F22952F70903470F49F702230DE
:1025E00098F09030A9F0F8019681903188F48F2D01
:1025F0002D96EDE00C94461E2A5F2F70223060F07D
:10260000C8012BDBFD2CF3CF903011F0803079F333
:10261000805E883060F3F4CF803F48F3815F833081
:10262000F9CF80914602816080934602BDCFC912E6
:1026300007C0909140029E1103C0F11409F469C0D3
:10264000C8010E94ED07803009F479C0F11409F443
:1026500076C080914602803270F020914002309125
:10266000410229833A83AB82BC827D821E828F83A2
:10267000CE010196F2DA87E0F801A0E4B2E0019021
:102680000D928A95E1F75CCF80914602803148F443
:1026900080E492E0E2DAF40187E011928A95E9F7AA
:1026A00083CFC11409F44DCF2091410291812913A8
:1026B000C7CF909140029E11C3CFF110C1CF868346
:1026C000C801CBDAF40187E011928A95E9F739CF96
:1026D000283C304000F7C11409F433CFF11479F1EC
:1026E000909141028181981320C0809140028E1107
:1026F0001CC08091460280FD0FC0803168F0868347
:10270000807F803F39F08681982F907F905F8F7017
:10271000892B8683C801A1DA87E0F801A0E4B2E042
:1027200001900D928A95E1F70CCFC8010E94ED0748
:102730008111A1CF80914602816080934602C80139
:102740008CDAFFCEA4E3B0E0E8EAF3E10C942D1EAE
:102750004FA758AB69AB7AAB8BAB192F9CAB9111E0
:10276000109205021EA686E0FE01BF96DE01989635
:1027700001900D928A95E1F7EFA4F8A80BA900301B
:1027800009F1E8A6F9A60CA71DA76E0188E2C80EFC
:10279000D11C560161E0C6010E94C2078091490226
:1027A000803061F087E0811B8983EA82FB828EEFB3
:1027B0008C8360E2CE0101960E94500B61E0C5015E
:1027C0000E94C207E8A6F9A60CA71DA787E0FE0194
:1027D000B896DE01919601900D928A95E1F7CE01AF
:1027E000819679DE81112EC0209106023091070278
:1027F00087E0AE014F5D5F4FFA0140525040DA0171
:1028000001900D928A95E1F78DA18030D9F0822F49
:1028100090E08395877090E0AC0134171506E1F0E5
:1028200097E0929FD0011124A85FBD4F9E012F5FBA
:102830003F4FF90101900D929A95E1F740930602FE
:102840000E9425058091070290910602891310C00D
:10285000E496EAE00C94491ECAD91092060210923E
:102860000702E0E4F2E087E011928A95E9F7EACF07
:1028700027E0829FC0011124885F9D4F2CDE8030AD
:1028800039F3809107029091080201968770809336
:102890000702D8CFAAE2B0E0E0E5F4E10C94341EE0
:1028A0008FE691E0FC0101962091F100208321E068
:1028B00087379207B9F780917001893009F459C0C0
:1028C000C8F4823009F4B7C0833009F486C081307F
:1028D00089F18091E80083FFEBC080916F019091B6
:1028E00070019A3008F0E4C0E92FF0E0E251F14EB7
:1028F0000C945C1E8A3009F48DC08B3051F78091A6
:102900006F01813231F78091730190917401892BAD
:1029100001F78091E800877F8093E8000E94BB095F
:1029200081E090917101911101C080E080930E01CE
:102930005ED9CFCF80916F01813A59F68091E8003E
:10294000877F8093E8008091730190917401892BB7
:1029500061F060E080E090E070E00E941E098091EC
:10296000E8008B778093E800B4CF68E087E791E0D8
:10297000F3CF80916F01813209F0ABCF8091730169
:10298000909174018D7F892B09F0A3CF8091E8008D
:10299000877F8093E8008091E80082FF19C0209132
:1029A000F3008091F200922F029731F48091F100B0
:1029B000813011F0863021F48091F10080930D0177
:1029C0008091E8008B778093E8000E94BB0981CF5B
:1029D000809199018111DFCF7CCF80916F01813A85
:1029E00009F077CF8091730190917401892B09F0E0
:1029F00070CF8091E800877F8093E8008091E800A5
:102A000080FFFCCF80910E018093F1008091E8005F
:102A10008E77D9CF80916F01813209F05ACF8091A2
:102A2000E800877F8093E8000E94BB0980917201D3
:102A300080930C014ECF80916F01813A09F049CF0C
:102A40008091E800877F8093E8008091E80080FF14
:102A5000FCCF80910C01D8CF803889F0823841F5C5
:102A6000809173018F70873018F58093E900809111
:102A7000EB0085FB882780F91092E90006C0809161
:102A80008401880F90916C01892B9091E800977FC9
:102A90009093E8008093F1001092F1008091E8009B
:102AA0008E7723C0811116C080917101813011F1A0
:102AB0008091E80083FF0AC08091E800877F8093BF
:102AC000E8008091EB0080628093EB00AA96E3E03F
:102AD0000C94501E823061F780917101803081F03A
:102AE0001092E9008091E800877F8093E8000E94BF
:102AF000BB09DECF933009F080E080938401F0CFF2
:102B0000809173018F70282F2150263088F6809392
:102B1000E9002091EB0020FFE3CF933031F4809166
:102B2000EB0080628093EB00DBCF9091EB00906133
:102B30009093EB0021E001C0220F8A95EAF72093E1
:102B4000EA001092EA008091EB008860EBCF8111DF
:102B5000AFCF109171011F778091E3008078812BB6
:102B60008093E3008091E800877F8093E8000E94D3
:102B7000BB098091E80080FFFCCF8091E300806872
:102B80008093E30083E0111101C082E080939901FA
:102B90008FCF8058823008F08BCF20917101309117
:102BA00072012C3D83E0380791F583E08A838AE245
:102BB00089834FB7F894DE01139620E03EE051E29E
:102BC000E32FF0E050935700849120FF03C08295DB
:102BD0008F703F5F8F708A30C0F0895C8D931D923B
:102BE0002F5F243169F74FBF8091E800877F809382
:102BF000E8006AE270E0CE0101960E941E09809111
:102C0000E8008B778093E80053CF805DE7CF832F78
:102C100090E08330910541F160F48130910509F431
:102C20007FC08230910509F043CF8BE5E1E8F1E008
:102C30002EC020917301309174018132910509F405
:102C400062C08232910509F033CF2130310509F499
:102C500073C02230310509F472C0232B09F028CF4C
:102C600084E4EDE3F1E013C0822F90E0223009F418
:102C700043C08330910580F50097B9F5ECE4F2E0AC
:102C8000E4918E2FECE4F2E0009709F411CF20914B
:102C9000E800277F2093E8002091750130917601AC
:102CA0008217930708F49C0140E02030320709F0B6
:102CB0004AC0411148C08091E80082FDA0CF8091B8
:102CC0009901803009F49BCF853009F498CF809129
:102CD000E80083FFF0CF93CF09F0EACEEEEEF1E00B
:102CE000E4918E2FEEEEF1E0CFCFE2E2F2E0E4915C
:102CF0008E2FE2E2F2E0C8CFEAE0F2E0E4918E2F1C
:102D0000EAE0F2E0C1CF2130310571F02230310527
:102D100079F0232B09F0CCCE89E0E3E9F1E0B7CFDD
:102D200082E1ECEDF1E0B3CF89E0ECEAF1E0AFCF86
:102D300089E0ECECF1E0ABCFECEAF0E0A8CF8FE675
:102D4000EEECF0E0A4CF80919901803009F457CFE8
:102D5000853009F454CF8091E80083FD50CF8091F5
:102D6000E80082FDA8CF8091E80080FF9ECF4091CF
:102D7000F3008091F200942F2030320719F0883050
:102D8000910550F041E0089709F040E08091E8009B
:102D90008E778093E80089CF44914093F10031967B
:102DA000215030400196E8CF803809F081CE8091E3
:102DB000E800877F8093E80080916D018093F100A7
:102DC0006DCE811175CE10917101123008F070CE68
:102DD0008091E800877F8093E80010936D010E9446
:102DE000BB091030F9F084E08093990142E061EC76
:102DF00081E00E94830942E261EC84E00E94830941
:102E000042E261EC82E00E94830942E260EC83E0EE
:102E10000E94830980919901843051F482E080936B
:102E20000F0146CE8091E30087FDDDCF81E0DCCF4E
:102E300081E0F5CF1F921FB61F9211248F939F93AD
:102E4000AF93BF93CF93DF93CDB7DEB7809183016C
:102E5000811113C08091940190919501A0919601E8
:102E6000B09197014196A11DB11D8093940190935B
:102E70009501A0939601B0939701DF91CF91BF91F7
:102E8000AF919F918F911F901FBE1F901895A0E04A
:102E9000B0E0ECE4F7E1E9C62FB7F8948091940133
:102EA00090919501A0919601B09197012FBFE2E01A
:102EB000F8C6A6E0B0E0EEE5F7E1D5C6E8DF8C01A4
:102EC0008091AC019091AD018017910769F0198252
:102ED0001A82DDDFBC0149815A8180E090E032DC5A
:102EE0000093AC011093AD012696E4E0D8C6A0E0B3
:102EF000B0E0ECE7F7E1B7C68C01C9DF801B910BAE
:102F0000E4E0CDC6A0E0B0E0E7E8F7E1AAC6809132
:102F1000100190911101892B31F500E010E0812F13
:102F2000895FF82E812F0E94930A8F2D0E94930AA9
:102F3000812F0E94720CE82E8F2D0E94720C9E2D04
:102F4000982B092B0E948C031F5F173041F700302C
:102F500029F181E080939C019ADF80939A019093FC
:102F60009B01E6E09AC680919D018F5F80939D0151
:102F70008111D3CF0E94300C90E080931001109209
:102F80001101892B51F68FEF93EC29E0815090408D
:102F90002040E1F700C000000E94040980919C01DC
:102FA0008030F9F200919A0110919B0170DF801B33
:102FB000910B0597B0F24EE050E06CE472E08EE9C0
:102FC00091E0C0D6892B49F08EE0ECE4F2E0AEE966
:102FD000B1E001900D928A95E1F710929C01C1CF6A
:102FE000CDB7DEB7C056D0400FB6F894DEBF0FBEE7
:102FF000CDBF85B7806885BF85B7806885BF84B73A
:10300000877F84BF0FB6F894A8958091600088618F
:1030100080936000109260000FBE80E890E00FB6D1
:10302000F89480936100909361000FBE81E08093DB
:103030000F018FE198E080934201909343010E9439
:103040006E0A0E941B0A8091E20084608093E20075
:10305000789480919901803091F08091E9001091ED
:10306000EC008F7010FB112717F9182B1092E90054
:103070008091E80083FD0EDC1F701093E90082E070
:1030800084BD93E095BD9AEF97BD80936E000E943A
:10309000300C80931001109211010E948C030E9449
:1030A0003E03ECE4F2E08EE011928A95E9F7EEE956
:1030B000F1E08EE011928A95E9F780E090E00FD67A
:1030C000833E9E4F69F163EE7EEF80E090E026D66E
:1030D00060E082E090E008D681E08093480261E001
:1030E00083E090E001D660E074E184E090E016D6E1
:1030F0001092F9011092FA011092FB011092FC015A
:1031000084E08093F90144E050E060E070E08FE0FB
:1031100090E0FCD560E070E0AB0183E190E0F6D593
:1031200082E090E0CFD58093850184E090E0D7D510
:103130008093030290930402E5DE8FE39CE90197FC
:10314000F1F700C00000DEDE80919E0180FF07C025
:103150006FEF7FEF80E090E0E1D50E94DA0A83E034
:1031600090E0B0D50E949C0B809101020E94060461
:1031700089EA8093800089E08093810024982C98CC
:103180003F98479A54985C9A55985D9A6E98769AAB
:10319000569A8FE090E09ED56093F9017093FA0102
:1031A0008093FB019093FC0167701FEF169FB001A5
:1031B0001124759567957595679570E070938900F2
:1031C0006093880070938B0060938A0070938D00E9
:1031D00060938C005E980E94C8030E94D4030E94F2
:1031E000E0038FEF90E090938900809388009093A4
:1031F0008B0080938A0090938D0080938C000E94B6
:10320000A7038FEF90E722E0815090402040E1F744
:1032100000C000000E94B2038FEF90E722E08150CF
:1032200090402040E1F700C000000E94BD038FEFF6
:1032300090E722E0815090402040E1F700C000007C
:103240000E94C8038FEF90E722E081509040204019
:10325000E1F700C000000E94D4038FEF90E722E066
:10326000815090402040E1F700C000000E94E00340
:103270008091F9018770189FC00111249595879559
:103280009595879590E0909389008093880090931E
:103290008B0080938A0090938D0080938C005E98C1
:1032A0000E94C8030E94D4030E94E00380E091E0E2
:1032B0008093CE019093CF010CEA11E07E0181E46E
:1032C000E80EF11C5E2C6F2C8091990142E1C42E16
:1032D00040E1D42E853009F491C014DE26E8C22ED8
:1032E00021E0D22E8EE991E01C0124E931E0FC01BD
:1032F000D6019D9180812A173B0709F489C0319638
:103300009817B9F3B12CF101A1901F01F60171904A
:103310006F017A1409F17A2488248394912C872DE3
:10332000882199F09982BA82B2DD8B839C8381E0F7
:103330008D8391E08A2D882109F490E09E83498154
:103340005A816B817C818D81FDD99394880C892D64
:10335000863029F7F601A292B3948B2D8E3099F620
:103360008FB7F89440919401509195016091960126
:10337000709197018FBF4FC080919901843021F1E6
:103380001092830188E190E020E40FB6F894A895AC
:10339000809360000FBE2093600083B7817F8460BC
:1033A00083BF83B7816083BF7894889583B78E7F0E
:1033B00083BF0FB6F894A8958091600088618093D0
:1033C0006000109260000FBE0E94300C80931001CC
:1033D000109211010E948C030E943E03EEE9F1E07D
:1033E0008EE011928A95E9F78DDDEEE9F1E08081BA
:1033F0008111FFC031960E171F07C9F780919901FF
:10340000853009F4B9CF0E94F70D0E94290865CFD5
:10341000981378CF4EDD0E94290890919801891762
:1034200069F0809398018FB7F8944091940150917E
:10343000950160919601709197018FBF80919901DC
:10344000843009F041CF83E08093E9008091E80067
:1034500082FF3ACF8091E80090E085FF05C00E948E
:10346000E209803099F091E08091E8008B778093B9
:10347000E800903009F428CFF701E081A52DB62DA2
:10348000EB3028F5F0E0E850F14E16C490E2A92E9A
:10349000B12C6E0181E4C80ED11C8091E80085FD3D
:1034A0000AC08091E8008B778093E8000E94E209CF
:1034B000803099F3D8CF8091F100F601808381E0CC
:1034C000A81AB10881F28FEFC81AD80AE6CFEE3FEA
:1034D00009F08DC0E98385E08A83EB830EC01982F1
:1034E0008CE0E2E1F1E09E012E5F3F4FD9010190B7
:1034F0000D928A95E1F78EEF8E8760E2CE010196FC
:103500000E94500BE1CE81E08093490284E089A3C0
:103510008EEFD82EDAA260E2CE0181960E94500B87
:103520009091010280914802892B0E94EC0395E062
:1035300099838A83DB82E1CF80914902803009F44C
:10354000C3CE12968C919E91911103C00E94CB0B19
:10355000BBCE91E001C0990F8A95EAF7892F0E94AE
:10356000AC0BB2CE84E00E94600BAECE81E08093C3
:103570004B0211968C911197813071F08230B1F02D
:1035800081111EC012968C91803019F00E94A70301
:103590009BCE0E94C80398CE12968C91803019F071
:1035A0000E94B20391CE0E94D4038ECE12968C91CB
:1035B000803019F00E94BD0387CE0E94E00384CEC4
:1035C00085E0D1CF11968C91DD24D394811101C077
:1035D000D12CD0924B02811106C00E94C8030E94D8
:1035E000D4030E94E0038BE08983DA8286CF8FEFD9
:1035F000BACF80918401803009F400CFD9BCC9BC16
:1036000009B400FEFDCF8091D8008F7D8093D80053
:103610008091E00082608093E0008091E00081FD75
:10362000FCCF0E94F70DEACE78941F921FB61F922E
:1036300011248F939F93AF93BF93CF93DF93CDB715
:10364000DEB78091940190919501A0919601B0917F
:1036500097010196A11DB11D80939401909395014E
:10366000A0939601B0939701DF91CF91BF91AF9155
:103670009F918F911F901FBE1F9018951F920F92C0
:103680000FB60F9211242F933F934F935F936F9335
:103690007F938F939F93AF93BF93EF93FF93CF93BA
:1036A000DF93CDB7DEB78091E10082FF09C0809142
:1036B000E20082FF05C08091E1008B7F8093E100F2
:1036C0008091DA0080FF24C08091D80080FF20C064
:1036D0008091DA008E7F8093DA008091D90080FF9C
:1036E000ABC080E189BD82E189BD09B400FEFDCF98
:1036F00081E08093990180916E01811109C00E943F
:103700006E0A0E941B0A8091E20084608093E200AE
:103710008091E10080FF1AC08091E20080FF16C016
:103720008091E2008E7F8093E2008091E2008061D0
:103730008093E2008091D80080628093D80019BC09
:1037400085E08093990183E080930F018091E100EF
:1037500084FF2FC08091E20084FF2BC080E189BDEF
:1037600082E189BD09B400FEFDCF8091D8008F7D34
:103770008093D8008091E1008F7E8093E10080915A
:10378000E2008F7E8093E2008091E200816080936E
:10379000E20080916D01803009F454C084E0809390
:1037A000990180919901843009F054C082E080939E
:1037B0000F018091E10083FF2CC08091E20083FF24
:1037C00028C08091E100877F8093E10082E08093B0
:1037D000990110926D018091E1008E7F8093E1004C
:1037E0008091E2008E7F8093E2008091E200806110
:1037F0008093E20042E060E080E00E9483098091D3
:10380000F00088608093F00081E080930F01809346
:103810000E01DF91CF91FF91EF91BF91AF919F91F9
:103820008F917F916F915F914F913F912F910F9069
:103830000FBE0F901F90189519BC1092990110920D
:103840006E0166CF8091E30087FF02C083E0A7CFBF
:1038500081E0A5CF81E0ABCF1F920F920FB60F9200
:1038600011241F932F933F934F935F936F937F93F5
:103870008F939F93AF93BF93EF93FF93CF93DF9378
:10388000CDB7DEB7E9EEF0E080811091EC008F70EB
:1038900010FB112717F9182B1082A0EFB0E08C91C4
:1038A000877F8C9378940E944A14E9EEF0E01082AE
:1038B000A0EFB0E08C9188608C931F701083DF9133
:1038C000CF91FF91EF91BF91AF919F918F917F9198
:1038D0006F915F914F913F912F911F910F900FBE6C
:1038E0000F901F901895CF92DF92FF920F931F9326
:1038F000CF93DF93CDB7DEB7F82E8B011092BC00CB
:1039000084EA8093BC00C3DA6C018091BC0087FF1D
:1039100025C08091B900887F883029F08091B90056
:10392000887F803181F5F092BB0084E88093BC00F1
:10393000AEDA6C018091BC0087FF1FC02091B900F6
:10394000287F80E090E0283181F081E090E0203411
:1039500009F480E091958195910907C0C601C7DA05
:103960000817190790F68EEF9FEFDF91CF911F9107
:103970000F91FF90DF90CF900895C601B8DA081735
:103980001907C0F6F0CF8FEF9FEFEFCFA0E0B0E0C8
:10399000EBECFCE16AC11092B9008CE08093B800B6
:1039A000E2E07FC1A0E0B0E0E7EDFCE15AC18B01AD
:1039B0008093BB0084E88093BC0069DA7C0180912D
:1039C000BC0087FF0DC02091B900287F81E090E006
:1039D000283209F480E0919581959109E6E05DC176
:1039E0000F3F100761F3C70182DA0817190738F78C
:1039F0008EEF9FEFF3CFA0E0B0E0E0E0FDE131C15A
:103A00008C0184EC8093BC0042DA7C018091BC0084
:103A100087FF05C08091BB0090E0E6E03EC10F3F0C
:103A20001007A1F3C70163DA0817190778F78EEFBB
:103A30009FEFF3CFA0E0B0E0EFE1FDE112C18C0118
:103A400084E88093BC0023DA7C018091BC0087FF6E
:103A500005C08091BB0090E0E6E01FC10F3F10075A
:103A6000A1F3C70144DA0817190778F78EEF9FEF23
:103A7000F3CFA0E0B0E0EEE3FDE1E9C0782E662EE2
:103A8000542E452E5901780102DA4C0104311105FA
:103A9000F8F00F3F100701F1C80164E170E0C1D0F8
:103AA000D62EC72E6D2D7C2D872D1DDF8C01892BE9
:103AB000B1F08FEFE816FE04A9F3C40118DAE81696
:103AC000F90680F784E98093BC00C801E0E1DBC01F
:103AD000DD24D394C12CE6CF85E0D82EFBCFB701EF
:103AE000862D60DF8C01C52CD42CAC0CBD1CCA14F7
:103AF000DB0441F30030100729F7B701F60181918B
:103B00006F0150DF8C01F3CFA0E0B0E0E9E8FDE108
:103B10009EC0582E462E6A0149017801B8D95C0131
:103B20000431110510F10F3F100719F1C80164E1CC
:103B300070E077D03B01B301852DD5DE8C01892B58
:103B4000D9F08FEFE816FE04B1F3C501D0D9E8161D
:103B5000F90688F784E98093BC00C80110161106A5
:103B600014F480E090E0E0E18EC066246394712C50
:103B7000E2CF95E0692EFBCFB701842D13DF8C01D6
:103B8000892B41F7752C689470F881D92C0184E158
:103B9000E816F10430F18FEFE816FE0431F1C701A9
:103BA00064E170E03ED05B01B501872D9CDE8C01A5
:103BB000892BF1F4A12CB12C81E0881A9108A8146A
:103BC000B90400F517FDC6CFC70115DF8C0197FDBD
:103BD00004C0F601EA0DFB1D80838FEFA81AB80A16
:103BE000EECFAA24A394B12CDFCF85E0A82EFBCF83
:103BF0008FEFE816FE04C1F2C20179D9E816F90682
:103C000098F6D8CF17FDA6CFC70114DF8C0197FD1A
:103C100005C0C80CD91CF60180839CCF0EEF1FEFA6
:103C200099CFAA1BBB1B51E107C0AA1FBB1FA61738
:103C3000B70710F0A61BB70B881F991F5A95A9F755
:103C400080959095BC01CD0108952F923F924F929F
:103C50005F926F927F928F929F92AF92BF92CF921C
:103C6000DF92EF92FF920F931F93CF93DF93CDB725
:103C7000DEB7CA1BDB0B0FB6F894DEBF0FBECDBF9D
:103C800009942A88398848885F846E847D848C846E
:103C90009B84AA84B984C884DF80EE80FD800C8177
:103CA0001B81AA81B981CE0FD11D0FB6F894DEBF5A
:103CB0000FBECDBFED010895EE0FFF1F0590F491EB
:103CC000E02D0994F999FECF92BD81BDF89A99270C
:103CD00080B50895A6E1B0E044E050E025C0A8E139
:103CE000B0E042E050E020C0262FF999FECF92BD0F
:103CF00081BDF89A019700B4021639F01FBA20BDB1
:103D00000FB6F894FA9AF99A0FBE08950396272FE2
:103D1000ECDFEADF252FE9DF242FE7CF0196272FFD
:103D2000E4DFE2CFDC01CB01FC01F999FECF06C054
:103D3000F2BDE1BDF89A319600B40D924150504069
:103D4000B8F70895FB01DC0104C08D910190801942
:103D500021F441505040C8F7881B990B0895F894FE
:103D6000FFCF3204840437043A043D0446044C0473
:103D70004F04490452045504580461046404670460
:103D80006A046D04700479044004430473047604E7
:103D90005B045E047C047F04F40E5A0FFC0EC70E15
:103DA000CB0E000FCF0E040F100FDB0E530FDF0EE4
:103DB000140FE30E180F3C0FE70E1C0F430FEC0E11
:103DC000210F290FD30E080FD70E0C0FF00E250F61
:103DD000330F4B0F510FC10EF80E610F2C155215FA
:103DE000581552155815A715C9155815D416E116AA
:103DF0006F1A831A6419F71A9C1AB21AB21AB61AF1
:063E0000B21AB21AE21A28
:103E0600F908FD0B140C1509220C500B00000100DB
:103E16002000376D4B6C622F586270596279000032
:103E26000000000000003031323392936601010138
:103E36000101010100000000000000F0F1F4F5F6B8
:023E4600F70083
:00000001FF
